:100000000C946F4E0C94A04E0C94A04E0C94A04EE9
:100010000C94A04E0C9482A00C94A04E0D94C2A2FD
:100020000C940DA00C94A04E0C94A04E0C94A04ED9
:100030000C94A04E0C94A04E0D94781B0D94C88087
:100040000C94A04E0C9432F10C94A04E0C94A04E43
:100050000C94A04E0C94A04E0C94A04E0D945B41B9
:100060000C94A04E0D94BF7B0C94A04E0C94A04E0B
:100070000C94A04E0C94A04E0C94A04E0C94A04E48
:100080000C94A04E0C94A04E0C94A04E0C94A04E38
:100090000D947B7B0C94A04E0C94A04E0C94A04E1F
:1000A0000C94A04E0C94A04E0D9440800C94A04E45
:1000B0000C94A04E0D9422800C94A04E0C94A04E53
:1000C0000C94A04E0C94A04E0C94A04E0D94957FD1
:1000D0000C94A04E0C94A04E0C94A04E0C94A04EE8
:1000E0000C94A04E26AF2FAFD2AEA1AE71AE1EB211
:1000F0006AAF89B01FB175B191B1C8B19BBC9EBC4C
:100100008DBC91BC97BCD5BCA2BCA6BCACBCB0BCE1
:10011000B4BCBABCBEBCC2BCD5BCC8BCCCBCD0BCD8
:100120000FC114C119C123C12DC1A6C137C13FC11F
:1001300047C151C15BC165C174C17EC1A6C188C13F
:1001400092C19CC1C6E2C6E2C9E2C6E2C9E2D7E2F8
:10015000DAE299E3D1E5A1E596E58BE580E575E581
:10016000F6E5E6E54EE520E5EEE4C2EB69EBC2EB31
:10017000C5EB36EC67ECC2EBC2EB89EC9F01F101F9
:10018000DF01050243023102B9016D0121028B0139
:10019000B9018101C10159011D02F701F501CD012C
:1001A0004D012D0223024B021102CF010D02EF017E
:1001B0004F02C70155015701D30109020F024B013C
:1001C00051017701084AD73B3BCE016E84BCBFFD8D
:1001D000C12F3D6C74319ABD56833DDA3D00C77F17
:1001E00011BED9E4BB4C3E916BAAAABE00000080B0
:1001F0003F05A84CCDB2D44EB93836A9020C50B93F
:10020000918688083CA6AAAA2ABE000000803F0763
:10021000634236B79BD8A71A39685618AEBAAB55A1
:100220008C1D3CB7CC5763BD6DEDFD753EF6177266
:1002300031BF000000803F08000000BE9224491238
:100240003EABAAAA2ABECDCCCC4C3E00000080BE5C
:10025000ABAAAAAA3E00000000BF000000803F0039
:1002600000000000084178D3BB4387D1133D190E2D
:100270003CC3BD4282AD2B3E68EC8276BED98FE195
:10028000A93E4C80EFFFBE01C4FF7F3F000000008D
:1002900000000D94F84F0D94D1650D94A0410D947C
:1002A000C18E0D94D4650D94F98E0D9490650D94C6
:1002B00093650D94EE160D94E18E0D94567B0D947E
:1002C0005E4F0D941F120D944B4F0D94B18A0D94F7
:1002D0009F4D0D94384F0D9474120D94C7160D94C4
:1002E000200B0D94F18E0D94F2590D943F470D940F
:1002F000E0650D94E98E0D94C29B0D94A7150D94A5
:10030000AA470D94DC160D94C98E0D9457130D94C5
:1003100071150D945E130D94D6160D94154F0D9412
:10032000BD040D9410040D9405510D9435150D94D4
:1003300008900D94B0490D94F4480D949F8E0D943F
:1003400030160D949E8D0D945A140D945D100D94DD
:1003500049130D94A98E0D941F4E0D94838D0D9409
:10036000F5110D94D8890D9404900D94D98E0D94A7
:10037000B1690D941A160D94DD150D94B98E0D9476
:1003800095100D94E8160D944F900D948A880D9455
:100390008D650D94B8490D94815A0D9493410D9437
:1003A0004B650D94428B0D949F650D94158F0D94A4
:1003B000B9090D9433450D943D7B0D940C900D942B
:1003C00061160D94C94F0D945B170D9418140D947C
:1003D000254F0D9467100D94BC110D948C8D0D94C8
:1003E0006A650D944F160D9434D40D9485410D9487
:1003F00077410D9437100D94958D0D94644A0D94AA
:10040000D18E0D9450130D94A7490D946F160D9431
:100410009E400D94AB650D947A480D9457650D94EC
:10042000B7650D94F1410D94F7530D94A7590D94B0
:10043000B18E0D9401150D94B04A0D9404170D94CE
:1004400087140D94DA160D94B9410D9475C20D946C
:100450007D050D9468130D9415540D94B2410D94BF
:10046000018F0D94B0160D94A50B0D948A100D9468
:100470005B4B0D9412480D94BD130D94C4140D9450
:10048000684F0D9462880D947A160D94B00A0D94FD
:1004900039470D947E880D94DB410D946A4B0D9481
:1004A0006D655F5345435F4C414E470000000000BF
:1004B000000000000000000000000000000000003C
:1004C000000000000000000000000000000000002C
:1004D000000000000000000000000000000000001C
:1004E000000000000000000000000000000000000C
:1034A0000000FFFF472D636F646520736C696365DF
:1034B0006420666F72206120646966666572656E5D
:1034C00074206C6576656C2E20436F6E74696E7522
:1034D000653F00FFFF472D636F646520736C696370
:1034E000656420666F722061206469666665726536
:1034F0006E74206C6576656C2E20506C656173650A
:103500002072652D736C69636520746865206D6F2A
:1035100064656C20616761696E2E205072696E74FB
:103520002063616E63656C6C65642E00FFFF472D40
:10353000636F646520736C6963656420666F7220D5
:1035400061206E65776572206669726D776172655C
:103550002E20506C65617365207570646174652000
:10356000746865206669726D776172652E2050728D
:10357000696E742063616E63656C6C65642E00FF18
:10358000FF472D636F646520736C69636564206613
:103590006F722061206E65776572206669726D7743
:1035A0006172652E20436F6E74696E75653F00FF12
:1035B000FF472D636F646520736C696365642066E3
:1035C0006F72206120646966666572656E74207032
:1035D00072696E74657220747970652E20436F6E07
:1035E00074696E75653F00FFFF472D636F6465204A
:1035F000736C6963656420666F722061206469661C
:10360000666572656E74207072696E74657220747E
:103610007970652E20506C656173652072652D731D
:103620006C69636520746865206D6F64656C2061EA
:103630006761696E2E205072696E742063616E63DB
:10364000656C6C65642E00FFFF50726573732074A7
:103650006865206B6E6F6220746F2070726568659C
:103660006174206E6F7A7A6C6520616E6420636F7E
:103670006E74696E75652E00FFFF506C6561736531
:1036800020707265737320746865206B6E6F6220A2
:10369000746F20756E6C6F61642066696C616D6516
:1036A0006E7400FFFF52656D6F7665206F6C64204D
:1036B00066696C616D656E7420616E642070726500
:1036C000737320746865206B6E6F6220746F207353
:1036D00074617274206C6F6164696E67206E6577C7
:1036E0002066696C616D656E742E00FFFF616E640B
:1036F00020707265737320746865206B6E6F620052
:10370000FFFF496E736572742066696C616D656E4A
:103710007400FFFF436F6C6F72206E6F7420636FD5
:10372000727265637400FFFF46696C616D656E744B
:10373000206E6F74206C6F6164656400FFFF4368E6
:10374000616E67656420636F72726563746C793F44
:1037500000FFFF4C6F6164696E6720636F6C6F726E
:1037600000FFFF4368616E6765207375636365736F
:10377000732100FFFF506C65617365206F70656E8B
:103780002069646C657220616E642072656D6F766D
:10379000652066696C616D656E74206D616E756122
:1037A0006C6C792E00FFFF5761732066696C616D48
:1037B000656E7420756E6C6F6164207375636365EC
:1037C000737366756C3F00FFFF506C656173652015
:1037D000757067726164652E00FFFF4E6577206625
:1037E00069726D776172652076657273696F6E209C
:1037F000617661696C61626C653A00FFFF576169CF
:1038000074696E6720666F722050494E4441207083
:10381000726F626520636F6F6C696E6700FFFF43B4
:10382000726173682064657465637465642E2052E8
:103830006573756D65207072696E743F00FFFF439C
:10384000726173682064657465637465642E00FF3B
:10385000FF43686F6F736520657874727564657275
:103860003A00FFFF43686F6F73652066696C616D96
:10387000656E743A00FFFF4E6F206D6F76652E0007
:10388000FFFF537461626C6520616D6269656E74DF
:103890002074656D70657261747572652032312DAA
:1038A000323643206973206E65656465642061204B
:1038B0007269676964207374616E64206973207231
:1038C000657175697265642E00FFFF506C656173E8
:1038D000652072756E2058595A2063616C69627256
:1038E0006174696F6E2066697273742E00FFFF57F2
:1038F00061697420666F7220757365722E2E2E00BA
:10390000FFFF4D4B3353206669726D7761726520FE
:103910006465746563746564206F6E204D4B33205D
:103920007072696E74657200FFFF426C61636B6F49
:103930007574206F636375727265642E20526563BF
:103940006F766572207072696E743F00FFFF536579
:103950006C66746573742077696C6C206265207284
:10396000756E20746F2063616C696272617465208A
:1039700061636375726174652073656E736F726CD9
:10398000657373207265686F6D696E672E00FFFF47
:103990005468657265206973207374696C6C20616A
:1039A000206E65656420746F206D616B65205A2000
:1039B00063616C6962726174696F6E2E20506C6510
:1039C00061736520666F6C6C6F7720746865206D1D
:1039D000616E75616C2C206368617074657220463D
:1039E000697273742073746570732C2073656374CB
:1039F000696F6E2043616C6962726174696F6E20D9
:103A0000666C6F772E00FFFF5072696E74657220CE
:103A1000686173206E6F74206265656E2063616CEF
:103A200069627261746564207965742E20506C65DA
:103A300061736520666F6C6C6F7720746865206DAC
:103A4000616E75616C2C20636861707465722046CC
:103A5000697273742073746570732C20736563745A
:103A6000696F6E2043616C6962726174696F6E2068
:103A7000666C6F772E00FFFF4F6C64207365747463
:103A8000696E677320666F756E642E20446566618B
:103A9000756C74205049442C2045737465707320F4
:103AA0006574632E2077696C6C2062652073657481
:103AB0002E00FFFF5761726E696E673A20626F7465
:103AC00068207072696E7465722074797065206107
:103AD0006E64206D6F74686572626F6172642074C9
:103AE000797065206368616E6765642E00FFFF571B
:103AF00061726E696E673A207072696E74657220C9
:103B000074797065206368616E6765642E00FFFFDD
:103B10005761726E696E673A206D6F746865726284
:103B20006F6172642074797065206368616E676587
:103B3000642E00FFFF58595A2063616C69627261FC
:103B400074696F6E20616C6C2072696768742E20D6
:103B5000536B65772077696C6C20626520636F72A8
:103B6000726563746564206175746F6D61746963F7
:103B7000616C6C792E00FFFF58595A2063616C69A3
:103B800062726174696F6E20616C6C207269676823
:103B9000742E20582F59206178657320617265203A
:103BA000736C696768746C7920736B657765642ED4
:103BB00020476F6F64206A6F622100FFFF58595AD7
:103BC0002063616C6962726174696F6E206F6B2E25
:103BD00020582F59206178657320617265207065C7
:103BE0007270656E646963756C61722E20436F6ECE
:103BF00067726174756C6174696F6E732100FFFF89
:103C000058595A2063616C6962726174696F6E20E1
:103C1000636F6D70726F6D697365642E2052696792
:103C200068742066726F6E742063616C6962726181
:103C300074696F6E20706F696E74206E6F7420727D
:103C40006561636861626C652E00FFFF58595A20F8
:103C500063616C6962726174696F6E20636F6D700D
:103C6000726F6D697365642E2046726F6E74206387
:103C7000616C6962726174696F6E20706F696E74D5
:103C800073206E6F7420726561636861626C652E6B
:103C900000FFFF58595A2063616C69627261746950
:103CA0006F6E206661696C65642E20526967687466
:103CB0002066726F6E742063616C696272617469F0
:103CC0006F6E20706F696E74206E6F742072656104
:103CD000636861626C652E00FFFF58595A2063616A
:103CE0006C6962726174696F6E206661696C65648B
:103CF0002E2046726F6E742063616C69627261740B
:103D0000696F6E20706F696E7473206E6F742072AD
:103D10006561636861626C652E00FFFF58595A2027
:103D200063616C6962726174696F6E206661696C4F
:103D300065642E20506C6561736520636F6E7375CA
:103D40006C7420746865206D616E75616C2E00FF67
:103D5000FF58595A2063616C6962726174696F6EB1
:103D6000206661696C65642E204265642063616C25
:103D70006962726174696F6E20706F696E7420770A
:103D80006173206E6F7420666F756E642E00FFFF86
:103D9000506C6561736520706C6163652073746538
:103DA000656C207368656574206F6E20686561744A
:103DB0006265642E00FFFF44697374616E63652061
:103DC0006265747765656E20746970206F66207413
:103DD0006865206E6F7A7A6C6520616E6420746805
:103DE0006520626564207375726661636520686131
:103DF00073206E6F74206265656E20736574207920
:103E000065742E20506C6561736520666F6C6C6FF5
:103E10007720746865206D616E75616C2C20636815
:103E20006170746572204669727374207374657072
:103E3000732C2073656374696F6E204669727374A6
:103E4000206C617965722063616C6962726174696A
:103E50006F6E2E00FFFF506C6163652061207368F8
:103E6000656574206F6620706170657220756E6480
:103E7000657220746865206E6F7A7A6C652064754F
:103E800072696E67207468652063616C6962726133
:103E900074696F6E206F66206669727374203420B7
:103EA000706F696E74732E20496620746865206E89
:103EB0006F7A7A6C652063617463686573207468D7
:103EC000652070617065722C20706F776572206F4D
:103ED000666620746865207072696E746572206908
:103EE0006D6D6564696174656C792E00FFFF506CBF
:103EF000656173652072656D6F76652073746565A5
:103F00006C2073686565742066726F6D20686561EA
:103F1000746265642E00FFFF497320737465656CDD
:103F2000207368656574206F6E20686561746265D2
:103F3000643F00FFFF536561726368696E672062CA
:103F400065642063616C6962726174696F6E207070
:103F50006F696E7400FFFF4D6561737572696E67FE
:103F6000207265666572656E63652068656967685D
:103F700074206F662063616C6962726174696F6E30
:103F800020706F696E7400FFFF506C65617365206F
:103F9000636C65616E20746865206E6F7A7A6C65FB
:103FA00020666F722063616C6962726174696F6E02
:103FB0002E20436C69636B207768656E20646F6E9A
:103FC000652E00FFFF4175746F20686F6D6500FFFF
:103FD000FF5265636F766572696E67207072696EF5
:103FE0007400FFFF506C6561736520776169740030
:103FF000FFFF426564206C6576656C696E672066BC
:1040000061696C65642E2053656E736F72206469FC
:10401000646E277420747269676765722E20446528
:1040200062726973206F6E206E6F7A7A6C653F20C2
:1040300057616974696E6720666F72207265736577
:10404000742E00FFFF506C656173652075706461AC
:104050007465206669726D7761726520696E20797A
:104060006F7572204D4D55322E2057616974696EFF
:104070006720666F722072657365742E00FFFF45BE
:1040800072726F72202D20737461746963206D6584
:104090006D6F727920686173206265656E206F763E
:1040A00065727772697474656E00FFFF43617264B4
:1040B0002072656D6F76656400FFFF4F6E00FFFF35
:1040C0004F666600FFFF4261636B00FFFF5072693D
:1040D0006E746572206E6F7A7A6C65206469616DAA
:1040E0006574657220646966666572732066726FB6
:1040F0006D2074686520472D636F64652E20506CB9
:104100006561736520636865636B207468652076FC
:10411000616C756520696E2073657474696E677370
:104120002E205072696E742063616E63656C6C65DD
:10413000642E00FFFF5072696E746572206E6F7A94
:104140007A6C65206469616D657465722064696666
:10415000666572732066726F6D2074686520472DE6
:10416000636F64652E20436F6E74696E75653F00E2
:10417000FFFF46696E697368696E67206D6F7665CB
:104180006D656E747300FFFF4272696768746E65D7
:10419000737300FFFF41737369737400FFFF53690A
:1041A0006C656E7400FFFF4F6E636500FFFF536F19
:1041B000756E6400FFFF4C6F756400FFFF4D4D5539
:1041C000204D6F646500FFFF437261736820646572
:1041D000742E00FFFF537465616C746800FFFF4E1E
:1041E0006F726D616C00FFFF46616E7320636865DE
:1041F000636B00FFFF506175736500FFFF4653203E
:10420000416374696F6E00FFFF436F6E742E00FF91
:10421000FF46696C2E2073656E736F7200FFFF435B
:1042200068616E67652066696C616D656E7400FF1C
:10423000FF466C6F7700FFFF537065656400FFFFFA
:104240004D61676E65747320636F6D702E00FFFFA4
:104250004E2F4100FFFF5A2D70726F6265206E7203
:104260002E00FFFF4D65736800FFFF54696D656F99
:10427000757400FFFF4D6F646500FFFF4175746F3B
:1042800000FFFF44696D00FFFF42726967687400B8
:10429000FFFF4C6576656C2044696D6D656400FFB9
:1042A000FF4C6576656C2042726967687400FFFF99
:1042B00046616E20737065656400FFFF42656400AF
:1042C000FFFF4E6F7A7A6C6500FFFF536574746967
:1042D0006E677300FFFF5072696E742061626F72C7
:1042E00074656400FFFF53746F70207072696E74A0
:1042F00000FFFF436865636B696E672066696C65E4
:1043000000FFFF46696C6520696E636F6D706C65B8
:1043100074652E20436F6E74696E756520616E79C9
:104320007761793F00FFFF0452656672657368002C
:10433000FFFF4D61696E00FFFF536F7274696E6716
:104340002066696C657300FFFF536F6D65206669B9
:104350006C65732077696C6C206E6F7420626520C9
:10436000736F727465642E204D61782E204E6F2E0F
:10437000206F662066696C657320696E2031206647
:104380006F6C64657220666F7220736F7274696EF1
:1043900067206973203130302E00FFFF4D313137F7
:1043A000204669727374206C617965722063616C58
:1043B0002E00FFFF5049442063616C2E2066696E19
:1043C000697368656400FFFF5049442063616C2E87
:1043D00000FFFF5072696E74207061757365640030
:1043E000FFFF5072696E742046414E00FFFF4E6F12
:1043F0007A7A6C652046414E00FFFF4D4D55206690
:1044000061696C7300FFFF4D4D55206C6F61642036
:104410006661696C7300FFFF4D4D5520706F7765C5
:1044200072206661696C7300FFFF546F74616C20C9
:104430006661696C7572657300FFFF4C617374206F
:104440007072696E74206661696C7572657300FFC5
:10445000FF506F776572206661696C7572657300D5
:10446000FFFF46696C2E2072756E6F75747300FFC6
:10447000FF437261736800FFFF546F74616C00FF4B
:10448000FF4C617374207072696E7400FFFF416DA0
:104490006269656E7400FFFF566F6C7461676573C7
:1044A00000FFFF54656D706572617475726573000D
:1044B000FFFF42656C742073746174757300FFFFB5
:1044C00053656E736F7220696E666F00FFFF4578EB
:1044D00074727564657220696E666F00FFFF5859CB
:1044E0005A2063616C2E2064657461696C7300FFEF
:1044F000FF756E6B6E6F776E00FFFF4D4D5532206E
:10450000636F6E6E656374656400FFFF446174657C
:104510003A00FFFF746F20756E6C6F6164206669EE
:104520006C616D656E7400FFFF746F206C6F616469
:104530002066696C616D656E7400FFFF5072657373
:104540007320746865206B6E6F6200FFFF507265A8
:1045500068656174696E6720746F2063757400FF0D
:10456000FF50726568656174696E6720746F2065BD
:104570006A65637400FFFF50726568656174696EF7
:104580006720746F20756E6C6F616400FFFF50725E
:104590006568656174696E6720746F206C6F616413
:1045A00000FFFF526573756D696E67207072696EEA
:1045B0007400FFFF50494E44412048656174696EA4
:1045C0006700FFFF43616C6962726174696F6E20FE
:1045D000646F6E6500FFFF43616C696272617469AC
:1045E0006E67205A00FFFF42656420646F6E6500AD
:1045F000FFFF4265642048656174696E6700FFFFD4
:1046000048656174696E6720646F6E652E00FFFFF8
:1046100048656174696E6700FFFF506C6561736582
:1046200020756E6C6F6164207468652066696C61CA
:104630006D656E742066697273742C207468656E83
:104640002072657065617420746869732061637499
:10465000696F6E2E00FFFF496E7365727420746877
:10466000652066696C616D656E742028646F206ECC
:104670006F74206C6F61642069742920696E746F97
:104680002074686520657874727564657220616E47
:1046900064207468656E2070726573732074686539
:1046A000206B6E6F622E00FFFF566572696669634C
:1046B0006174696F6E206661696C65642C20726537
:1046C0006D6F7665207468652066696C616D656ED6
:1046D0007420616E642074727920616761696E2E46
:1046E00000FFFF53656E736F7220766572696669AD
:1046F00065642C2072656D6F766520746865206630
:10470000696C616D656E74206E6F772E00FFFF50CF
:104710006C6561736520636865636B2074686520F0
:1047200049522073656E736F7220636F6E6E65639E
:1047300074696F6E2C20756E6C6F61642066696C95
:10474000616D656E742069662070726573656E7444
:104750002E00FFFF57616974696E6720666F7220D3
:104760006E6F7A7A6C6520616E6420626564206386
:104770006F6F6C696E6700FFFF53656C6620746530
:104780007374204F4B00FFFF53656C662074657394
:104790007420737461727400FFFF5072696E74202C
:1047A00066616E3A00FFFF45787472756465722029
:1047B00066616E3A00FFFF43616C69627261746901
:1047C0006E6720686F6D6500FFFF416C6C20636F42
:1047D000727265637400FFFF436865636B696E679F
:1047E0002073656E736F727300FFFF436865636BC0
:1047F000696E6720686F74656E6400FFFF436865CB
:10480000636B696E672062656400FFFF43686563E0
:104810006B696E67205A206178697300FFFF4368F7
:1048200065636B696E672059206178697300FFFFCB
:10483000436865636B696E6720582061786973000F
:10484000FFFF436865636B696E6720656E64737410
:104850006F707300FFFF5265617220736964652099
:104860005B756D5D00FFFF46726F6E742073696447
:10487000655B756D5D00FFFF526967687420736941
:1048800064655B756D5D00FFFF4C65667420736940
:104890006465205B756D5D00FFFF53657420746572
:1048A0006D70657261747572653A00FFFF54656DD5
:1048B00070657261747572652063616C69627261A2
:1048C00074696F6E206661696C656400FFFF5465F2
:1048D0006D70657261747572652063616C69627276
:1048E0006174696F6E2069732066696E69736865AB
:1048F0006420616E64206163746976652E2054655E
:104900006D702E2063616C6962726174696F6E20D4
:1049100063616E2062652064697361626C65642006
:10492000696E206D656E752053657474696E67736A
:104930002D3E54656D702E2063616C2E00FFFF4686
:10494000696C2E2073656E736F7200FFFF4578747B
:10495000727564657200FFFF4D6F7665205A00FF27
:10496000FF4D6F7665205900FFFF4D6F766520582B
:1049700000FFFF4372617368206465746563746946
:104980006F6E2063616E0A6265207475726E656475
:10499000206F6E206F6E6C7920696E0A4E6F726D9B
:1049A000616C206D6F646500FFFF5741524E494EA8
:1049B000473A0A4372617368206465746563746979
:1049C0006F6E0A64697361626C656420696E0A5374
:1049D0007465616C7468206D6F646500FFFF4175DC
:1049E000746F6C6F6164696E672066696C616D6578
:1049F0006E7420617661696C61626C65206F6E6CAB
:104A000079207768656E2066696C616D656E7420CB
:104A100073656E736F72206973207475726E65644E
:104A2000206F6E2E2E2E00FFFF4552524F523A201D
:104A300046696C616D656E742073656E736F72206C
:104A40006973206E6F7420726573706F6E64696E27
:104A5000672C20706C6561736520636865636B20EB
:104A6000636F6E6E656374696F6E2E00FFFF4D6F2E
:104A70006465206368616E676520696E2070726F7F
:104A800067726573732E2E2E00FFFF436F707920BF
:104A900073656C6563746564206C616E67756167CE
:104AA000653F00FFFF53656C656374206C616E6742
:104AB0007561676500FFFF436F6D6D756E69747991
:104AC000206D61646500FFFF43616C69627261740F
:104AD0006500FFFF536865657420252E37730A5AF9
:104AE000206F66667365743A20252B312E3366205D
:104AF0006D6D0A2563436F6E74696E75650A256373
:104B000053746172742066726F6D207A65726F00E3
:104B1000FFFF506C65617365206C6F61642066698E
:104B20006C616D656E742066697273742E00FFFF90
:104B300053656C6563742066696C616D656E743A6B
:104B400000FFFF46696C616D656E7400FFFF3E43B8
:104B5000616E63656C00FFFF52756E6E696E672053
:104B600057697A6172642077696C6C2064656C6542
:104B700074652063757272656E742063616C69621E
:104B8000726174696F6E20726573756C74732061E5
:104B90006E642073746172742066726F6D20746825
:104BA0006520626567696E6E696E672E20436F6E61
:104BB00074696E75653F00FFFF50726568656174CA
:104BC000696E67206E6F7A7A6C652E20506C656115
:104BD000736520776169742E00FFFF4C6F61646913
:104BE0006E672066696C616D656E7400FFFF506CC6
:104BF0006561736520696E736572742066696C61A6
:104C00006D656E7420696E746F20746865206578B8
:104C10007472756465722C207468656E207072659C
:104C2000737320746865206B6E6F6220746F206CE4
:104C30006F61642069742E00FFFF506C65617365BD
:104C400020696E736572742066696C616D656E743F
:104C500020696E746F2074686520666972737420B1
:104C600074756265206F6620746865204D4D552C03
:104C7000207468656E207072657373207468652097
:104C80006B6E6F6220746F206C6F61642069742E8C
:104C900000FFFF546865207072696E74657220773A
:104CA000696C6C207374617274207072696E7469BF
:104CB0006E672061207A69672D7A6167206C696E62
:104CC000652E20526F7461746520746865206B6E68
:104CD0006F6220756E74696C20796F7520726561E2
:104CE000636820746865206F7074696D616C2068FA
:104CF00065696768742E20436865636B2074686516
:104D000020706963747572657320696E20746865BC
:104D10002068616E64626F6F6B202843616C69620A
:104D2000726174696F6E2063686170746572292E98
:104D300000FFFF53656C6563742074656D70657268
:104D40006174757265207768696368206D6174634A
:104D500068657320796F7572206D61746572696121
:104D60006C2E00FFFF43686F6F73652061206669DA
:104D70006C616D656E7420666F7220746865204684
:104D800069727374204C617965722043616C696249
:104D9000726174696F6E20616E642073656C656307
:104DA0007420697420696E20746865206F6E2D739D
:104DB000637265656E206D656E752E00FFFF4E6F28
:104DC0007720492077696C6C2063616C696272613D
:104DD00074652064697374616E63652062657477BD
:104DE00065656E20746970206F6620746865206E3A
:104DF0006F7A7A6C6520616E6420686561746265A3
:104E00006420737572666163652E00FFFF596F75CC
:104E10002063616E20616C776179732072657375B0
:104E20006D65207468652057697A617264206672C6
:104E30006F6D2043616C6962726174696F6E202DC1
:104E40003E2057697A6172642E00FFFF506C6561E5
:104E5000736520636865636B206F75722068616E8F
:104E600064626F6F6B20616E64206669782074687D
:104E7000652070726F626C656D2E205468656E20BF
:104E8000726573756D65207468652057697A617203
:104E900064206279207265626F6F74696E67207436
:104EA0006865207072696E7465722E00FFFF416C38
:104EB0006C20697320646F6E652E20486170707974
:104EC000207072696E74696E672100FFFF49662069
:104ED000796F752068617665206164646974696FB3
:104EE0006E616C20737465656C207368656574739E
:104EF0002C2063616C6962726174652074686569F5
:104F000072207072657365747320696E20536574C6
:104F100074696E6773202D2048572053657475702F
:104F2000202D20537465656C207368656574732E3D
:104F300000FFFF506C6561736520636C65616E20D6
:104F40006865617462656420616E64207468656E72
:104F500020707265737320746865206B6E6F622EAB
:104F600000FFFF446F20796F752077616E742074A5
:104F70006F20726570656174206C61737420737446
:104F8000657020746F20726561646A757374206443
:104F9000697374616E6365206265747765656E2000
:104FA0006E6F7A7A6C6520616E64206865617462E8
:104FB00065643F00FFFF53656C656374206E6F7A14
:104FC0007A6C6520707265686561742074656D70B7
:104FD00065726174757265207768696368206D61B8
:104FE000746368657320796F7572206D6174657282
:104FF00069616C2E00FFFF49732066696C616D6505
:105000006E74206C6F616465643F00FFFF4E6F77C4
:1050100020492077696C6C20707265686561742026
:105020006E6F7A7A6C6520666F7220504C412E004C
:10503000FFFF492077696C6C2072756E207A2063BF
:10504000616C6962726174696F6E206E6F772E0099
:10505000FFFF4E6F772072656D6F7665207468650F
:105060002074657374207072696E742066726F6D3F
:1050700020737465656C2073686565742E00FFFF8E
:10508000506C656173652072656D6F76652073681D
:10509000697070696E672068656C706572732066F0
:1050A000697273742E00FFFF492077696C6C20725F
:1050B000756E2078797A2063616C696272617469B7
:1050C0006F6E206E6F772E2049742077696C6C208C
:1050D00074616B6520617070726F782E20313220A0
:1050E0006D696E732E00FFFF46697273742C204940
:1050F0002077696C6C2072756E207468652073650A
:105100006C667465737420746F20636865636B20CC
:105110006D6F737420636F6D6D6F6E206173736557
:105120006D626C792070726F626C656D732E00FF1A
:10513000FF48692C204920616D20796F7572204FDE
:10514000726967696E616C20507275736120693392
:10515000207072696E7465722E20576F756C6420B2
:10516000796F75206C696B65206D6520746F2067A1
:105170007569646520796F75207468726F756768EA
:10518000207468652073657475702070726F636534
:1051900073733F00FFFF48692C204920616D20791F
:1051A0006F7572204F726967696E616C20507275FD
:1051B0007361206933207072696E7465722E2049A4
:1051C0002077696C6C20677569646520796F75203C
:1051D0007468726F75676820612073686F727420DD
:1051E00073657475702070726F636573732C2069BA
:1051F0006E20776869636820746865205A2D61782D
:1052000069732077696C6C2062652063616C6962E8
:1052100072617465642E205468656E2C20796F75F8
:105220002077696C6C2062652072656164792074F6
:105230006F207072696E742E00FFFF756E6B6E6F5B
:10524000776E20737461746500FFFF20302E342068
:105250006F72206E6577657200FFFF20302E33205D
:105260006F72206F6C64657200FFFF54656D702E65
:105270002063616C6962726174696F6E00FFFF5236
:10528000657365742058595A2063616C6962722E87
:1052900000FFFF5049442063616C69627261746968
:1052A0006F6E00FFFF426564206C6576656C20635D
:1052B0006F727265637400FFFF4D6573682042650D
:1052C00064204C6576656C696E6700FFFF43616C16
:1052D000696272617465205A00FFFF43616C696204
:1052E000726174652058595A00FFFF53656C6674EB
:1052F00065737400FFFF42656C74207465737400FD
:10530000FFFF57697A61726400FFFF4C6F61642090
:10531000616C6C00FFFF506C656173652070756C8B
:105320006C206F75742066696C616D656E742069A0
:105330006D6D6564696174656C7900FFFF556E6C15
:105340006F6164696E672066696C616D656E74007B
:10535000FFFF526573657400FFFF52656E616D65F6
:1053600000FFFF4669727374206C61796572206377
:10537000616C2E00FFFF53656C65637400FFFF5383
:105380007465656C2073686565747300FFFF537501
:1053900070706F727400FFFF4661696C20737461F6
:1053A0007473204D4D5500FFFF4661696C20737486
:1053B00061747300FFFF537461746973746963737C
:1053C00000FFFF43616C6962726174696F6E00FF78
:1053D000FF4175746F4C6F61642066696C616D6527
:1053E0006E7400FFFF4375742066696C616D656EB5
:1053F0007400FFFF456A6563742066696C616D65C2
:105400006E7400FFFF556E6C6F61642066696C619D
:105410006D656E7400FFFF4C6F616420746F206EC9
:105420006F7A7A6C6500FFFF4C6F61642066696C6F
:10543000616D656E7400FFFF4E6F20534420636101
:10544000726400FFFF5072696E742066726F6D2087
:10545000534400FFFF526573756D65207072696E6D
:105460007400FFFF5061757365207072696E74007F
:10547000FFFF5072656865617400FFFF54756E65CB
:1054800000FFFF4C6976652061646A757374205A69
:1054900000FFFF496E666F2073637265656E00FFE3
:1054A000FF452D636F72726563743A00FFFF5A2DDA
:1054B000636F72726563743A00FFFF592D636F72F8
:1054C000726563743A00FFFF582D636F72726563F3
:1054D000743A00FFFF43757474657200FFFF4D6FEF
:1054E00064656C00FFFF53747269637400FFFF57BB
:1054F00061726E00FFFF436865636B7300FFFF4ED0
:105500006F7A7A6C6520642E00FFFF4E6F6E650027
:10551000FFFF416C70686162657400FFFF536F723A
:105520007400FFFF54696D6500FFFF534420636101
:10553000726400FFFF53656C656374206C616E6775
:105540007561676500FFFF52506920706F727400CB
:10555000FFFF54656D702E2063616C2E00FFFF4CC1
:10556000696E2E20636F7272656374696F6E00FFDF
:10557000FF485720536574757000FFFF462E206169
:1055800075746F6C6F616400FFFF44697361626CD6
:105590006520737465707065727300FFFF4D6F76E0
:1055A00065206178697300FFFF54656D70657261F5
:1055B0007475726500FFFF4D4D55204F4B2E2052E4
:1055C0006573756D696E672E2E2E00FFFF4D4D556C
:1055D000204F4B2E20526573756D696E6720706F7A
:1055E000736974696F6E2E2E2E00FFFF4D4D55208E
:1055F0004F4B2E20526573756D696E672074656D13
:1056000070657261747572652E2E2E00FFFF4669FB
:10561000782074686520697373756520616E6420F5
:105620007468656E20707265737320627574746F30
:105630006E206F6E204D4D5520756E69742E00FFE3
:10564000FF507265737320746865206B6E6F622003
:10565000746F20726573756D65206E6F7A7A6C65F4
:105660002074656D70657261747572652E00FFFF40
:105670004D4D55206E6565647320757365722061AC
:105680007474656E74696F6E2E00FFFF43757474D9
:10569000696E672066696C616D656E7400FFFF500E
:1056A0006C656173652072656D6F76652066696CE7
:1056B000616D656E7420616E64207468656E207023
:1056C0007265737320746865206B6E6F622E00FFC5
:1056D000FF456A656374696E672066696C616D6514
:1056E0006E7400FFFF4D4D55206C6F616420666144
:1056F000696C656400FFFF53544F505045442E00C1
:10570000FFFF536865657400FFFF59657300FFFF75
:105710004E6F00FFFF4E6F74207370696E6E696E7E
:105720006700FFFF5370696E6E696E6700FFFF468A
:10573000616E207465737400FFFF53656C66746559
:105740007374206661696C656400FFFF2573206CCB
:105750006576656C20657870656374656400FFFF2D
:1057600046616C73652074726967676572696E67FC
:1057700000FFFF46696C616D656E742073656E7322
:105780006F7200FFFF5377617070656400FFFF4622
:10579000726F6E742F6C6566742066616E7300FFA5
:1057A000FF4178697300FFFF41786973206C656E73
:1057B00067746800FFFF4C6F6F73652070756C6CC9
:1057C000657900FFFF4C65667420686F74656E64D0
:1057D0002066616E3F00FFFF46726F6E742070722C
:1057E000696E742066616E3F00FFFF456E647374DE
:1057F0006F70206E6F742068697400FFFF456E64DF
:1058000073746F7000FFFF4D6F746F7200FFFF4580
:105810006E6473746F707300FFFF576972696E670F
:10582000206572726F7200FFFF4265642F486561E8
:1058300074657200FFFF4E6F7420636F6E6E656358
:1058400074656400FFFF4865617465722F54686574
:10585000726D6973746F7200FFFF506C65617365E0
:1058600020636865636B3A00FFFF53656C6674657F
:105870007374206572726F722100FFFF4865617456
:10588000696E672064697361626C65642062792067
:105890007361666574792074696D65722E00FFFF0F
:1058A00046532076302E33206F72206F6C64657201
:1058B00000FFFF46532076302E34206F72206E6535
:1058C00077657200FFFF436F6F6C646F776E00FF48
:1058D000FF5072656865617420746865206E6F7A28
:1058E0007A6C652100FFFF4552524F523A00FFFF8C
:1058F00046696C616D656E74206578747275646953
:105900006E672026207769746820636F7272656302
:105910007420636F6C6F723F00FFFF4175746F6C92
:105920006F6164696E672066696C616D656E742075
:105930006973206163746976652C206A75737420BD
:10594000707265737320746865206B6E6F6220617E
:105950006E6420696E736572742066696C616D6532
:105960006E742E2E2E00FFFF46696C616D656E749D
:10597000207573656400FFFF5072696E742074694E
:105980006D6500FFFF546F74616C2066696C616D1A
:10599000656E7400FFFF546F74616C207072696EE5
:1059A000742074696D6500FFFF5920646973746128
:1059B0006E63652066726F6D206D696E00FFFF4C2F
:1059C00065667400FFFF526967687400FFFF4D65EC
:1059D00061737572656420736B657700FFFF536CAC
:1059E0006967687420736B657700FFFF53657665A0
:1059F000726520736B657700FFFF5B303B305D2085
:105A0000706F696E74206F666673657400FFFF4186
:105A1000646A757374696E67205A3A00FFFF536FAA
:105A20006D652070726F626C656D20656E636F7559
:105A30006E74657265642C205A2D6C6576656C6990
:105A40006E6720656E666F72636564202E2E2E0071
:105A50002564206279746573207772697474656E49
:105A600020746F20454550524F4D20617420616471
:105A700064726573732030782530347800443320A5
:105A80002D20526561642F57726974652045455019
:105A9000524F4D0A00442D31202D20456E646C6517
:105AA0007373206C6F6F700A005344207072696EBC
:105AB00074696E6720627974652000416374697649
:105AC000652045787472756465723A2000496E7677
:105AD000616C6964206578747275646572005A201F
:105AE0004F666673657400556E6B6E6F776E2063DC
:105AF0006F6D6D616E643A2022004D323030204966
:105B00006E76616C69642065787472756465722064
:105B1000007A5F6D61783A20007A5F6D696E3A2095
:105B200000795F6D61783A2000795F6D696E3A2087
:105B300000785F6D61783A20006F70656E00545296
:105B40004947474552454400785F6D696E3A2000E9
:105B50005265706F7274696E6720656E6473746FDE
:105B600070207374617475730053494C454E540032
:105B70004E4F524D414C002553204D4F44453A2045
:105B800050657263656E7420646F6E653A20256897
:105B900068643B207072696E742074696D65207250
:105BA000656D61696E696E6720696E206D696E73DF
:105BB0003A2025643B204368616E676520696E204A
:105BC0006D696E733A2025640A00456E642066692B
:105BD0006C65206C69737400426567696E20666944
:105BE0006C65206C697374000A50494E44412074FE
:105BF000656D70657261747572653A20252E316627
:105C0000205A20736869667420286D6D293A202512
:105C10002E3366000A537465703A2025642F360AC5
:105C2000000A537465703A2025642F362028736B60
:105C30006970706564290A50494E44412074656D4D
:105C400070657261747572653A202564205A2073FC
:105C50006869667420286D6D293A300A000A5A4531
:105C6000524F3A20252E33660A00737461727420F5
:105C700074656D70657261747572653A20252E3198
:105C8000660A0025642020252E3266002553205800
:105C90003A20252E356620593A20252E3566205A81
:105CA0003A20252E35660A00536C6565702E2E2E1F
:105CB0000045303A25642052504D0A50524E303A39
:105CC00025642052504D0A002564004578746572A1
:105CD0006E616C2053504920666C6173680A5846A7
:105CE0004C415348206973206E6F74207265732D88
:105CF0000A706F6E64696E672E204C616E67756105
:105D000067650A73776974636820756E6176616987
:105D10006C61626C652E00FFFF50727573612069C3
:105D200033204D4B3353204F4B2E00437261736829
:105D30004465746563742044495341424C454400B2
:105D4000437261736844657465637420454E4142D3
:105D50004C45442100457874727564657220666113
:105D60006E20747970653A200058464C41534820A3
:105D70006E6F7420726573706F6E64696E672E004B
:105D80002020506C616E6E65724275666665724267
:105D9000797465733A20002046726565204D656D03
:105DA0006F72793A2000207C20417574686F723AD6
:105DB0002000204C61737420557064617465643AEE
:105DC000200020536F667477617265205265736599
:105DD0007400205761746368646F6720526573654F
:105DE00074002042726F776E206F75742052657355
:105DF0006574002045787465726E616C205265731D
:105E0000657400506F7765725570006572726F72BD
:105E10002077726974696E6720746F2066696C659B
:105E200000656E6473746F7073206869743A200043
:105E3000446F6E6520736176696E672066696C6574
:105E40002E006F6B004D6561737572656420736B16
:105E50006577733A2025662025660A0046697474C2
:105E6000696E67206661696C6564203D3E206361F0
:105E70006C6962726174696F6E206661696C6564D9
:105E80002E0A0043616C6962726174696F6E2073DF
:105E90007563636573732E0A00416C6C2034206354
:105EA000616C6962726174696F6E20706F696E7483
:105EB0007320666F756E642E0A00312F3400312F07
:105EC0003400312F3900504F5745522050414E4930
:105ED000432044455445435445440055564C4F20B7
:105EE0002D20656E642025640A0055564C4F5F5482
:105EF000494E59202D20656E642025640A00776F75
:105F0000726C6420636F6F7264696E617465733A5A
:105F10002028252E33662C20252E33662C20252E76
:105F20003366290A0043757272656E7420706F7350
:105F3000205A5F415849533A252E33660A437572F9
:105F400072656E7420706F7320455F415849533AF3
:105F5000252E33660A004166746572207761697484
:105F6000696E6720666F722074656D703A0A4375BA
:105F70007272656E7420706F7320585F4158495378
:105F80003A252E33660A43757272656E7420706FFF
:105F90007320595F415849533A252E33660A003120
:105FA0002F3900534420636172642072656C65610F
:105FB00073656400452D636F6F6C206D6F646500C1
:105FC000414C5446414E206465742E002F2F2061B1
:105FD0006374696F6E3A63616E63656C005344204D
:105FE00063617264206F6B006F70656E526F6F74C7
:105FF000206661696C656400766F6C756D652E69ED
:106000006E6974206661696C656400534420696E32
:106010006974206661696C006F70656E20666169E5
:106020006C65642C2046696C653A200043616E6E95
:106030006F7420656E746572207375626469723A5C
:1060400020002F2F20616374696F6E3A7061757341
:1060500065002573202534642052504D0A25732095
:106060002534642052504D0A00686F77746F2E708B
:106070007275736133642E636F6D00666F72756D38
:106080002E707275736133642E636F6D007072755C
:10609000736133642E636F6D00544D432044524945
:1060A000564552204F56455254454D5000256325C4
:1060B00033642F25642563005A25362E3266256306
:1060C000005A2020202D2D2D200025632533642506
:1060D00025002D2D2D0025336868640025335325B8
:1060E00033732525005553420020202000205344BF
:1060F000002025753E257500203F3E257500204671
:1061000025750020463F002046524D200025632D76
:106110002D3A2D2D20200025632533756820256319
:106120002563002563253032753A253032752563A5
:1061300025630041786973206C656E67746820641C
:106140006966666572656E63653A252E33660A0078
:106150004D656173757265642061786973206C6543
:106160006E6774683A252E33660A004C43442073E8
:106170007461747573206368616E676564002020C4
:1061800030002020310046494E444100FFFF504975
:106190004E44410057697A61726420656E642073D1
:1061A000746174653A2025640A0020746F6F206C56
:1061B0006F6E6720657874727573696F6E20707288
:1061C0006576656E7465640020636F6C6420657825
:1061D00074727573696F6E2070726576656E746522
:1061E00064004572723A205052494E542046414E46
:1061F000204552524F52004572723A20455854522F
:106200002E2046414E204552524F52002F2F2061E2
:106210006374696F6E3A706175736564002F2F2027
:10622000616374696F6E3A726573756D6564002F92
:106230002F20616374696F6E3A726573756D6500C6
:10624000FFFF53706F6F6C4A6F696E00FFFF466906
:10625000726D7761726500FFFF466C61736841691A
:10626000720025632533642F2564256300656E71F4
:106270007565696E67202200446F6E6520707269D3
:106280006E74696E672066696C65004D313132202D
:1062900063616C6C65642E20456D657267656E6325
:1062A000792053746F702E005072696E746572207D
:1062B00073746F707065642064756520746F2065F9
:1062C00072726F72732E204669782074686520653B
:1062D00072726F7220616E6420757365204D39395A
:1062E0003920746F20726573746172742E20285483
:1062F000656D706572617475726520697320726571
:106300007365742E2053657420697420616674650A
:10631000722072657374617274696E6729004E6FC2
:10632000204C696E65204E756D62657220776974C8
:106330006820636865636B73756D2C204C617374A2
:10634000204C696E653A20004E6F20436865636B90
:1063500073756D2077697468206C696E65206E7541
:106360006D6265722C204C617374204C696E653AC5
:106370002000636865636B73756D206D69736D6173
:106380007463682C204C617374204C696E653A20EC
:10639000004C696E65204E756D62657220697320D0
:1063A0006E6F74204C617374204C696E65204E755D
:1063B0006D6265722B312C204C617374204C696EB8
:1063C000653A20003F3F004E656465726C616E6403
:1063D0007300506F6C736B69004974616C69616E16
:1063E0006F004672616E6361697300457370616E20
:1063F0006F6C0044657574736368004365737469FA
:106400006E6100456E676C69736800526573656EF6
:10641000640025533A20256C640A25530A00496E0E
:1064200061637469766974792053687574646F77F1
:106430006E004B494C4C45442E20005072696E74DE
:1064400065722068616C7465642E206B696C6C28C1
:10645000292063616C6C656421004B494C4C3A20E7
:1064600025640A004D32323120496E76616C6964D0
:1064700020657874727564657220004D3231382061
:10648000496E76616C6964206578747275646572B2
:1064900020004D31303920496E76616C6964206589
:1064A0007874727564657220004D31303520496E04
:1064B00076616C6964206578747275646572200019
:1064C0004D31303420496E76616C69642065787492
:1064D0007275646572200025533A0A2531382E32D0
:1064E000666D200A25533A0A2531306C64682025F0
:1064F00030326868646D2025303268686473002526
:10650000533A0A2531382E32666D200A25533A0A4D
:106510002531306C64642025303268686468202539
:1065200030326868646D0025362E32666D6D002548
:10653000530A25530A25533A0A25533A0025332E88
:1065400032660100252D31342E3134533A0A255359
:106550000A252D31342E3134533A25332E3266013B
:106560000A252D31342E3134533A25332E3266012B
:106570000020436F756E7420583A200045303A254C
:10658000642052504D2050524E313A2564205250D2
:106590004D204530403A25752050524E31403A2525
:1065A000640A006E616E00696E66004E414E494E8F
:1065B000495459494E46CDCCCC3D0AD7233C17B758
:1065C000D13877CC2B329595E6241FB14F0A0000C5
:1065D00020410000C84200401C4620BCBE4CCA1BE3
:1065E0000E5AAEC59D7400407A10F35A00A0724E48
:1065F00018090010A5D4E80000E87648170000E468
:106600000B54020000CA9A3B000000E1F5050000AF
:1066100080969800000040420F000000A086010014
:106620000000102700000000E803000000006400E4
:10663000000000000A00000000000100000000004F
:106640002C76D888DC674F0823DFC1DFAE59E1B173
:10665000B796E5E3E453C63AE651997696E8E6C282
:106660008426EB898C9B62ED407C6FFCEFBC9C9F89
:1066700040F2BAA56FA5F490055A2AF75C936B6CAB
:10668000F9676DC11BFCE0E40D47FEF520E6B5009F
:10669000D0ED902E0300943577050080841E08000D
:1066A00000204E0A000000C80C333333330F986EBD
:1066B00012831141EF8D2114893BE65516CFFEE67A
:1066C000DB18D1844B381BF77C1D901DA4BBE42440
:1066D000203284725E228100C9F124ECA1E53D27BD
:1066E0006364696E6F70737578585B00416476619E
:1066F0006E6365204B3D004B206F7574206F6620E4
:10670000616C6C6F7765642072616E676521002033
:106710000A200A20004D32323020532569002553CB
:1067200046696C616D656E742073657474696E671B
:10673000733A2044697361626C65640A00255346AC
:10674000696C616D656E742073657474696E6773CE
:106750003A0A25532020204D3230302044252E3255
:10676000660A002553526574726163743A20533D82
:106770004C656E67746820286D6D2920463A537009
:1067800065656420286D6D2F6D29205A3A205A4C7A
:1067900069667420286D6D290A25532020204D320A
:1067A00030372053252E32662046252E3266205A59
:1067B000252E32660A25535265636F7665723A203C
:1067C000533D4578747261206C656E67746820284B
:1067D0006D6D2920463A537065656420286D6D2FD4
:1067E0006D290A25532020204D3230382053252E84
:1067F00032662046252E32660A25534175746F2D68
:10680000526574726163743A20533D3020746F2076
:1068100064697361626C652C203120746F20696E2D
:106820007465727072657420657874727564652D14
:106830006F6E6C79206D6F76657320617320726561
:10684000747261637473206F72207265636F766512
:10685000726965730A25532020204D323039205348
:1068600025640A00255350494420686561746265B7
:10687000642073657474696E67733A0A2553202027
:10688000204D3330342050252E32662049252E32BB
:10689000662044252E32660A002553504944207351
:1068A000657474696E67733A0A25532020204D334E
:1068B00030312050252E32662049252E3266204464
:1068C000252E32660A002553537465707320706557
:1068D0007220756E69743A0A255320204D39322092
:1068E00058252E32662059252E3266205A252E3202
:1068F000662045252E32660A25535553746570204F
:106900007265736F6C7574696F6E3A200A25532037
:106910004D3335302058256420592564205A25648C
:10692000204525640A25534D6178696D756D206693
:106930006565647261746573202D206E6F726D6180
:106940006C20286D6D2F73293A0A255320204D3273
:1069500030332058252E32662059252E3266205A93
:10696000252E32662045252E32660A25534D617844
:10697000696D756D20666565647261746573202D3F
:1069800020737465616C746820286D6D2F73293ACB
:106990000A255320204D3230332058252E326620D0
:1069A00059252E3266205A252E32662045252E3254
:1069B000660A25534D6178696D756D206163636565
:1069C0006C65726174696F6E202D206E6F726D61DF
:1069D0006C20286D6D2F7332293A0A255320204DE3
:1069E0003230312058256C752059256C75205A2578
:1069F0006C752045256C750A25534D6178696D7558
:106A00006D20616363656C65726174696F6E202DC2
:106A100020737465616C746820286D6D2F73322942
:106A20003A0A255320204D3230312058256C7520EC
:106A300059256C75205A256C752045256C750A25DD
:106A400053416363656C65726174696F6E3A20507F
:106A50003D7072696E742C20523D72657472616370
:106A6000742C20543D74726176656C0A2553202085
:106A70004D3230342050252E32662052252E32667B
:106A80002054252E32660A2553416476616E636573
:106A900064207661726961626C65733A20533D4D82
:106AA000696E20666565647261746520286D6D2F5E
:106AB00073292C20543D4D696E2074726176656C8B
:106AC00020666565647261746520286D6D2F732979
:106AD0002C20423D6D696E696D756D207365676D23
:106AE000656E742074696D6520286D73292C20589B
:106AF0003D6D6178696D756D205859206A65726BBE
:106B000020286D6D2F73292C20205A3D6D617869E6
:106B10006D756D205A206A65726B20286D6D2F731C
:106B2000292C2020453D6D6178696D756D204520CB
:106B30006A65726B20286D6D2F73290A25532020FA
:106B40004D3230352053252E32662054252E3266A4
:106B50002042252E32662058252E32662059252EB9
:106B60003266205A252E32662045252E32660A25A9
:106B700053486F6D65206F666673657420286D6D70
:106B8000293A0A255320204D3230362058252E32FE
:106B9000662059252E3266205A252E32660A004676
:106BA00025642025640A004D4D55203C3D20274694
:106BB0002564202564270A00504944204175746FDC
:106BC00074756E652066696E69736865642120500E
:106BD000757420746865206C617374204B702C2070
:106BE0004B6920616E64204B6420636F6E73746127
:106BF0006E74732066726F6D2061626F76652069B6
:106C00006E746F20436F6E66696775726174696F29
:106C10006E2E6800504944204175746F74756E651E
:106C2000206661696C6564212074696D656F757497
:106C30000020403A00543A00423A00504944204172
:106C400075746F74756E65206661696C656421206A
:106C500054656D706572617475726520746F6F2014
:106C60006869676800204B643A2000204B693A202D
:106C700000204B703A200020436C617373696320DD
:106C800050494420002054753A2000204B753A208A
:106C900000206D61783A2000206D696E3A20002056
:106CA000643A200020626961733A20004361703ABF
:106CB00025533A25630A00455854454E4445445FE0
:106CC0004D3230004155544F5245504F52545F5051
:106CD0004F534954494F4E004155544F5245504F20
:106CE00052545F46414E53004155544F5245504F08
:106CF00052545F54454D5000005A30005A310059EB
:106D00003000593100583000583100456E6420730E
:106D1000746F707320646961670044656C657469A1
:106D20006F6E206661696C65642C2046696C653AFB
:106D3000200046696C652064656C657465643A0082
:106D40004E6F74205344207072696E74696E6700D0
:106D50005072696E742073617665640053442070CC
:106D600072696E7420706175736564004F4B0042E8
:106D700041440052414D426F2046414E2000435253
:106D80004153485F43414E43454C004352415348B1
:106D90005F5245434F5645520043524153485F525C
:106DA00045434F5645520022283229004475706CE5
:106DB000696361746520542D636F64652069676E33
:106DC0006F7265642E00496E76616C696420542090
:106DD000636F64652E00556E6B6E6F776E204D206D
:106DE000636F64653A202573200A002C204D3930EA
:106DF0003720452069676E6F726564006E6F20767C
:106E0000616C696420636F6D6D616E64002C20009D
:106E10002C20002C20006E2F61002C20002C200044
:106E20002C20006E2F6100503A0057616974206673
:106E30006F722050494E444120746172676574201E
:106E400074656D70657261747572653A0041555470
:106E50004F004C414E472053454C20464F5243452E
:106E60004400256925250A00256925250A002228D0
:106E700031290030303030303030302D303030304B
:106E80002D303030302D303030302D30303030300B
:106E9000303030303030300020555549443A0031E0
:106EA000002045585452554445525F434F554E5467
:106EB0003A005072757361206933204D4B33530093
:106EC000204D414348494E455F545950453A0031A1
:106ED0002E3000206261736564206F6E204D6172F8
:106EE0006C696E204649524D574152455F55524C90
:106EF0003A68747470733A2F2F6769746875622EDC
:106F0000636F6D2F707275736133642F5072757378
:106F1000612D4669726D776172652050524F544FF2
:106F2000434F4C5F56455253494F4E3A00464952E3
:106F30004D574152455F4E414D453A507275736110
:106F40002D4669726D7761726520004D31313320B5
:106F5000530020423A0020453A00543A006F6B201B
:106F6000006E2F61003F546F736869626120466C48
:106F70006173684169722047657449502066616990
:106F80006C65640A002569206D696E2C20256920D6
:106F900073656300496E76616C6964204D20636F90
:106FA00064653A202573200A00556E6B6E6F776E0C
:106FB000204720636F64653A202573200A004D65E1
:106FC000736820626564206C6576656C696E672005
:106FD0006E6F74206163746976652E002020000A4C
:106FE0004D6561737572656420706F696E74733A74
:106FF000000A5A2073656172636820686569676872
:10700000743A20004E756D20582C593A2000504992
:107010004E44412070726F62652063616C696272D8
:107020006174696F6E207374617274004732382026
:107030005730004E6F2050494E44412074686572AD
:107040006D6973746F7200736574006E6F7A7A6C19
:1070500065004D424C0046520042656174004C7A16
:10706000004C616E67005265760046697200534EAF
:1070700020696E76616C696400534E004D323800B1
:107080005245534554004D4D55524553004D3234F1
:107090000075766C6F007468780046414E0046417A
:1070A0004E50494E5453540050524E0050696E6732
:1070B000005052555341005345545F43484F505F71
:1070C000005345545F535445505F005345545F5738
:1070D0004156455F00544D435F0043524153485F62
:1070E00043414E43454C0043524153485F52454350
:1070F0004F5645520043524153485F44455445431F
:107100005445440043524153485F004D3120004DE7
:1071100030004D313137004C616E67756167652015
:107120007570646174652E003B53006164635F6930
:107130006E6974000A204F726967696E616C205035
:10714000727573612069330A202020507275736153
:1071500020526573656172636800200A200A200A64
:107160002000416C6C204461746100536572766943
:1071700063652070726570005368697070696E672E
:1071800020707265700053746174697374696373FD
:10719000004C616E67756167650045524153494E09
:1071A0004720616C6C206461746100466163746F98
:1071B00072792052455345540044495341424C454D
:1071C0004400454E41424C454400202873656E738F
:1071D0006F7220626F617264207265766973696F85
:1071E0006E3A2553290A004653656E736F72202547
:1071F0005300494E5434004D4B33534D4D5532538B
:10720000004E4F4D4B3353002E014E4F43545541CA
:1072100000414C5446414E004A756C2031352032B5
:1072200030323100436F6D70696C65643A2000281C
:107230006E6F6E652C2064656661756C7420636F7B
:107240006E66696729004A756C203135203230320C
:10725000312031383A34363A31300020332E313053
:107260002E302D3434383100737461727400534EF3
:1072700020757064617465206661696C6564005393
:107280004E207570646174656400416E2065727291
:107290006F72207768696C652077726974696E67B0
:1072A00020746F2074686520534420436172642EFB
:1072B000002055706C6F616420696E2070726F677A
:1072C0007265737300205A3A0020593A0020583AE8
:1072D0000043524153485F44455445435445445844
:1072E000590043524153485F444554454354454433
:1072F000590043524153485F444554454354454423
:1073000058004D32390078797A63616C5F6D656140
:1073100073737572655F656E7465720A0078797A49
:1073200063616C5F73706972616C382063783D25AE
:10733000642063793D2564207A303D256420647A99
:107340003D2564207261646975733D256420616424
:107350003D25640A0078797A63616C5F73656172B8
:1073600063685A206E6F207369676E616C0A2078BB
:107370003D256C6420793D256C64207A3D256C6444
:107380000A00204F4E2D5349474E414C2061742036
:10739000783D256420793D2564207A3D256420616F
:1073A000643D25640A0078797A63616C5F73656176
:1073B0007263685A20783D256C6420793D256C64A1
:1073C000207A3D256C640A0025640A005363616ECF
:1073D00020636F756E74646F776E3A20000A002523
:1073E00030327800205B25662025665D206D6D209B
:1073F0007061747465726E2063656E7465720A00E4
:10740000205B25662025665D5B25665D206D6D2011
:10741000646976657267656E63650A000000F00056
:10742000F801FC03FE07FE07FE07FE07FC03F80158
:10743000F000000000000000F000F801FC03FC0375
:10744000FC03FC03F801F0000000000078797A6387
:10745000616C5F6D656173737572655F6C65617694
:10746000650A00203C20005741524E494E473A20C1
:1074700046726F6E7420706F696E74206E6F742028
:10748000726561636861626C652E205920636F6F5D
:107490007264696E6174653A00000000404100004A
:1074A000C04000005C430000C04000005C4300009E
:1074B0004643000040410000464325642F34004904
:1074C0007465726174696F6E3A200043616C696221
:1074D000726174696F6E206661696C656421204316
:1074E0006865636B20746865206178657320616EE0
:1074F000642072756E20616761696E2E0020573AB4
:107500000020453A00543A005A206C6976652061A3
:10751000646A757374206F7574206F662072616E73
:1075200067652E2053657474696E6720746F203010
:107530002E20436C69636B20746F20636F6E7469D7
:107540006E75652E005A206C6976652061646A75D7
:107550007374206F7574206F662072616E67652E7C
:107560002053657474696E6720746F203000204268
:107570003A0020453A00543A00494E5434007265AE
:10758000636F7665725F6D616368696E655F737462
:107590006174655F61667465725F706F7765725F55
:1075A00070616E69632C20696E697469616C20007A
:1075B00050525553412075766C6F0047342053303C
:1075C000004D32362053256C75004D313036205336
:1075D000004D323230205325640047312046256467
:1075E000004D3832004739322045004731204525CB
:1075F000302E3366204632373030004D3230342062
:107600005025662052256620542566004731205AB1
:107610002566005052555341204D424C20563100B2
:1076200047312058256620592566204633303030B2
:1076300000506F736974696F6E20726561642066B3
:10764000726F6D20656570726F6D3A004D32332038
:107650002573002E67636F002C20666565646D7569
:107660006C7469706C793A00466565647261746522
:107670003A0047312045252D302E336620463237DB
:1076800030300047312045352046313230004D380A
:1076900033004D31303920532564004D31393020CD
:1076A000532564004D31303420532564004732386F
:1076B00020582059004731205A252E33662046385D
:1076C0003030004731205A252D302E336620462594
:1076D0002D302E33660047312045252D302E336660
:1076E000204632373030004D3833002563252D2EAB
:1076F00031365320002563252E3135533A25732525
:10770000336400252D32302E3230530A0045787212
:10771000656D65207370616E206F662074686520EA
:107720005A2076616C756573210025642F39006FCE
:107730006B0A0073746172740A004D4D55322066F5
:1077400069726D776172652076657273696F6E20FC
:10775000696E76616C69642E205265717569726517
:10776000642076657273696F6E3A206275696C6425
:10777000206E756D626572202564206F72206869C5
:10778000676865722E004D4D55203D3E20276F6B7A
:10779000270A004D4D55203D3E20276F6B270A00DC
:1077A0002564004D4D55203D3E20276F6B272C2032
:1077B000726573756D65207072696E740A004D4D47
:1077C0005520726574727920617474656D707420CF
:1077D0006E722E2025640A004D4D55203D3E202717
:1077E0006F6B270A00410A004D4D55203C3D202774
:1077F00041270A004D363030004D3630302041559B
:10780000544F002568687500410A004D4D55203CD5
:107810003D202741270A0050300A004D25640A0008
:107820004D4D55203C3D20274D2564270A005730FB
:107830000A004D4D55203C3D20275730270A005364
:10784000330A004D4D55203C3D20275333270A0075
:1078500052300A004D4D55203C3D20275230270A1A
:10786000004B25640A004D4D55203C3D20274B25FB
:1078700064270A004525640A004D4D55203C3D20F3
:1078800027452564270A0055300A004D4D55203CF8
:107890003D20275530270A0043300A004D4D552022
:1078A0003C3D20274330270A004C25640A004D4DFB
:1078B00055203C3D20274C2564270A005425640AA6
:1078C000004D4D55203C3D2027542564270A004D8E
:1078D0004D55202D20454E41424C454400256868B9
:1078E000750050300A004D310A004D4D55203C3D89
:1078F00020274D31270050300A004D4D5520766528
:107900007273696F6E2076616C6964004D4D55200D
:107910003D3E202725646F6B270A002575005332F2
:107920000A004D4D55203C3D2027533227004D4D38
:1079300055203D3E202725646F6B270A00257500E2
:107940004D4D55206E6F7420726573706F6E646953
:107950006E67202D2044495341424C454400533129
:107960000A004D4D55203C3D2027533127004D4DF9
:1079700055203D3E2027737461727427000000007B
:107980000000110A04505255534133444657000039
:10799000002100240027002A002D003000330001C0
:1079A000010000040107010A01000022002500284F
:1079B000002B002E003100340002010000050108F8
:1079C000010B01000020002300260029002C002FBD
:1079D0000032000001000003010601090105050550
:1079E00005070508080808020202020A0A08080436
:1079F0000404040101010101010101030303030364
:107A0000030303040707070C0C0C0C0C0C0C0C02F2
:107A100002020206060606060606060B0B0B0B0BF9
:107A20000B0B0B07070A0A0A0A0A0A0505050404D4
:107A300004080801021020200808102040102040EF
:107A40008002010201080402010102040810204022
:107A50008080402010080402018004020180402040
:107A60001008040201080402010102040810204069
:107A700080010204081020408010080408801020B3
:107A800040044080102040048000000A0B02090CD2
:107A90000D0E0807030401000000000000000000B4
:107AA00000000000000000000000000000000000D6
:107AB0000000000000121110000000000000000093
:107AC00000000000000000000000000000000000B6
:107AD0000000000000000000000000000000004D59
:107AE000363030004D203834004D3834004D3234BB
:107AF000004D323320257300052E2E004E6F2030AE
:107B00007846462072656365697665640053656EE4
:107B100064696E6720307846460020222573220073
:107B20002025236C78004449525F4558495400444D
:107B300049525F454E5445523A2025732022257301
:107B4000220A0046696C652073656C656374656420
:107B5000002053697A653A200046696C65206F7091
:107B6000656E65643A20004E6F77206672657368B3
:107B70002066696C653A20004E6F7720646F696EED
:107B8000672066696C653A20002220706F730022BE
:107B900020706172656E743A2200535542524F55FF
:107BA00054494E452043414C4C20746172676574C2
:107BB0003A2200747279696E6720746F2063616C79
:107BC0006C207375622D67636F64652066696C65F0
:107BD00073207769746820746F6F206D616E7920EF
:107BE0006C6576656C732E0046696C616D656E74AC
:107BF0002073656E736F7220626F617264206368B8
:107C0000616E67652064657465637465643A2072AB
:107C100065766973696F6E25530A004731205835C0
:107C20002E302045342E302046313030302E30007A
:107C30004731205A302E32302046313030302E300D
:107C4000004731205835352E302045323520463119
:107C50003430302E3000473120592D322E3020461E
:107C6000313030302E3000473120583234302E3011
:107C7000204532352E30202046323230302E300032
:107C80004739322045302E30004731205A302E33CC
:107C90002046313030302E30004731205835352ED7
:107CA000302045382E302046323030302E300047DC
:107CB000312058352E30204533322E302046313891
:107CC00030302E30004731205835352E30204533A6
:107CD000322E302046313037332E300047312046A7
:107CE00034303030004D32303420533130303000B9
:107CF0004731205A352046373230302E3030300070
:107D0000473120452D312E3530303030204632314C
:107D100030302E3030303030004D3833004739307D
:107D200000473231004739322045302E300047318C
:107D300020583530205935352045332E36323737E7
:107D40003300473120583230302059353520453006
:107D50002E343933383600473120583230302059EC
:107D600037352045332E36323737330047312058E8
:107D70003530205937352045302E343933383600E8
:107D8000473120583530205939352045332E363289
:107D900037373300473120583230302059393520B9
:107DA00045302E34393338360047312058323030A0
:107DB00020593131352045332E363237373300479D
:107DC000312058353020593131352045302E343965
:107DD000333836004731205835302059313335207B
:107DE00045332E3632373733004731205832303062
:107DF00020593133352045302E363631373400475F
:107E000031205832303020593135352045322E3628
:107E1000323737330047312058313030205931352F
:107E20003520453200473120583735205931353516
:107E30002045322E3500473120463130383000475A
:107E400031205A302E3135302046373230302E3006
:107E50003030004731205835302059313535004712
:107E600039322045302E3000473238004D3130391C
:107E7000004D313930004D31303700542564004712
:107E800031205A302E342046313030302E300047E9
:107E90003120592D332E302046313030302E3000F5
:107EA0004D383300473120583130302E30204531A5
:107EB000322E352046313030302E300047312058B8
:107EC00036302E302045392E302046313030302E9D
:107ED0003000C57CAF7C997C897C807C677C567C3B
:107EE000417C307C1B7C257D217D1D7D197D007DA5
:107EF000F07CE57CDC7C4731205835302059333527
:107F00002045252D2E336600537E3F7E367E257E0E
:107F1000157EFF7DE97DD47DBF7DA97D947D807D2B
:107F20006C7D577D427D2E7D496E76616C69642043
:107F30005049442063616C2E20726573756C7473B4
:107F40002E204E6F742073746F72656420746F20DE
:107F5000454550524F4D2E004D35303000473120B1
:107F60005A313520463135303000473931004731FC
:107F700020583530205931393020453020463730AF
:107F8000303000473930004D3834004D3730322022
:107F900043004731205831302059313830204634A1
:107FA000303030004731205A3130204631333030C4
:107FB0002E303030004D313430205330004D3130D0
:107FC0003420533000473120452D302E30373530A6
:107FD000302046323130302E3030303030004D31AC
:107FE00030370025530A20252D31362E31365325C2
:107FF0002D33640A20252D31362E313653252D336D
:10800000640025530A20252D31362E313653252D77
:1080100033640A20252D31362E313653252D336415
:108020000A20252D31362E313653252D3364002577
:10803000530A20252D31362E313653252D33640A2F
:1080400020252D31362E313653252D33640A202537
:108050002D372E37535820252D33642020592025C5
:108060002D33640020257325336401200A000A2083
:108070004952203A2020202020202025332E31660E
:108080005600205057523A20202020202025342E00
:108090003166560A204245443A20202020202025DF
:1080A000342E3166560025530A20582025640A20B4
:1080B000592025640025752E25752E25752E2575CC
:1080C0000025730020005072696E7465722049505B
:1080D00020416464723A002573002000466C61738D
:1080E0006841697220495020416464723A004D4DE4
:1080F0005532202020202020204E2F410025642EA4
:1081000025642E25642D2564002046573A004669D3
:108110006C2E2073656E736F7220762E3A004A754E
:108120006C203135203230323100453344763666AA
:10813000756C6C0045494E53795F31306100315F99
:1081400037356D6D5F4D4B33002D2D2D2D2D2D2D84
:108150002D2D2D2D2D00207265706F20556E6B6EAC
:108160006F776E0020332E31302E302D343438317D
:10817000004669726D776172653A004D37303200A2
:108180004D373031004D373032004D3730310072CD
:108190006573756C742076616C75653A2025640A88
:1081A0000020693D25326420636E743D25326420D1
:1081B00076616C3D2532640A00636C757374657278
:1081C000733A0020693D25326420737465703D2543
:1081D00032640A00736F727465642073616D706C31
:1081E00065733A00252D3773003A200025642F3639
:1081F00000252D32305300203A2000252D323073D7
:108200000024F4D43050C38E20C2A24017828B7059
:1082100011127A910D816CD90AA861E108C75866DC
:1082200007615143061E4B5D05C145A7041A411164
:1082300004093D9803713931034036DB02653391FF
:1082400002D4305402802E1D02632CEE01752AC523
:1082500001B028A001102781018F2564012B244B38
:1082600001E0223401AC211F018D200D01801FFC93
:1082700000841EED00971DDF00B81CD200E61BC66F
:1082800000201BBC00641AB200B219A8000A19A091
:10829000006A189900D117910040178B00B5168419
:1082A0000031167E00B31579003A157300C7146FBC
:1082B0000058146A00EE1366008813630025135EED
:1082C00000C7125B006C12570015125400C1115107
:1082D0000070114F0021114B00D61049008D10473E
:1082E000004610440002104200C00F4000800F3EC4
:1082F00000420F3C00060F3B00CB0E3800930E37B8
:10830000005C0E3500270E3400F30D3200C10D3134
:1083100000900D3000600D2E00320D2D00050D2C4B
:1083200000D90C2B00AE0C2900850C29005C0C2711
:1083300000350C27000E0C2600E80B2400C40B248B
:1083400000A00B23007D0B23005A0B2100390B21C9
:1083500000180B2000F80A1F00D90A1E00BB0A1ED5
:10836000009D0A1D00800A1D00630A1C00470A1BAD
:10837000002C0A1B00110A1A00F7091A00DD09195E
:1083800000C4091900AB091900920917007B0918EC
:1083900000630917004C091600360916002009165B
:1083A000000A091500F5081500E0081400CC0814AF
:1083B00000B8081400A4081400900813007D0812E7
:1083C000006B081300580812004608120034081108
:1083D00000230811001208110001081100F0071015
:1083E00000E0071000D0071000C0071000B0070F12
:1083F00000A107100091070E0083070F0074070FFC
:108400000065070E0057070E0049070E003B070DD9
:10841000002E070E0020070D0013070D0006070DA4
:1084200000F9060C00ED060D00E0060C00D4060C69
:1084300000C8060C00BC060C00B0060C00A4060B1D
:108440000099060C008D060B0082060B0077060BC8
:10845000006C060B0061060A0057060B004C060A6A
:108460000042060A0038060A002E060A0024060A00
:10847000001A060A001006090007060A00FD050991
:1084800000F4050900EB050900E2050900D905091A
:1084900000D0050900C7050900BE050900B505089B
:1084A00000AD050800A50509009C05080094050815
:1084B000008C050800840508007C05080074050888
:1084C000006C050700650508005D050700560508F6
:1084D000004E05070047050700400508003805075E
:1084E00000310507002A050700230507001C0506C3
:1084F00000160507000F050700080506000205071E
:1085000000FB040600F5040700EE040600E804067C
:1085100000E2040700DB040600D5040600CF0406D1
:1085200000C9040600C3040600BD040600B7040623
:1085300000B1040500AC040600A6040600A0040572
:10854000009B04060095040500900406008A0405BB
:108550000085040500800406007A04050075040502
:1085600000700405006B0405006604050061040545
:10857000005C04050057040500520405004D040585
:108580000048040500430405003E0404003A0405C5
:108590000035040500300404002C04050027040401
:1085A00000230405001E0404001A04040016040538
:1085B00000110404000D040400090405000404046F
:1085C0000000040400FC030400F8030400F40304A6
:1085D00000F0030400EC030400E8030400E40304D7
:1085E00000E0030400DC030400D8030400D4030407
:1085F00000D0030400CC030400C8030300C5030338
:108600000024F404D9201BC40C5C0E9804C4095F38
:108610000265077101F405F900FB04B30048048703
:1086200000C10369005803550003034500BE023A28
:10863000008402310053022A00290225000402208E
:1086400000E4011C00C8011900AF011700980114D3
:108650000084011300710110006101100051010E2E
:108660000043010D0036010B002B010B0020010B14
:1086700000150109000C01090003010800FB0008B6
:1086800000F3000800EB000700E4000600DE00062F
:1086900000D8000600D2000600CC000500C7000587
:1086A00000C2000500BD000400B9000400B50004CC
:1086B00000B1000400AD000400A9000400A50003FF
:1086C00000A20003009F0004009B00030098000329
:1086D000009500020093000300900003008D00024B
:1086E000008B000300880002008600020084000363
:1086F00000810002007F0002007D0002007B00027A
:108700000079000200770001007600020074000288
:108710000072000100710002006F0002006D000194
:10872000006C0002006A000100690002006700019D
:1087300000660001006500010064000200620001A3
:108740000061000100600001005F0002005D0001A7
:10875000005C0001005B0001005A000100590001AB
:1087600000580001005700010056000100550001AB
:1087700000540001005300000053000100520001AA
:108780000051000100500001004F0001004E0000A8
:10879000004E0001004D0001004C0001004B0000A4
:1087A000004B0001004A00010049000100480000A0
:1087B000004800010047000100460000004600019B
:1087C0000045000000450001004400010043000096
:1087D000004300010042000000420001004100008F
:1087E0000041000100400001003F0000003F000187
:1087F000003E0000003E0001003D0000003D000181
:10880000003C0000003C0000003C0001003B000078
:10881000003B0001003A0000003A0001003900006E
:108820000039000100380000003800000038000165
:10883000003700000037000100360000003600005D
:108840000036000100350000003500000035000151
:108850000034000000340000003400010033000048
:10886000003300000033000100320000003200003D
:108870000032000100310000003100000031000131
:10888000003000000030000000300001002F000028
:10889000002F0000002F0000002F0001002E00001C
:1088A000002E0000002E0001002D0000002D000011
:1088B000002D0000002D0001002C0000002C000005
:1088C000002C0000002C0001002B0000002B0000F9
:1088D000002B0000002B0001002A0000002A0000ED
:1088E000002A0000002A00010029000000290000E1
:1088F00000290000002900000029000100280000D4
:1089000000280000002800000028000000280001C6
:1089100000270000002700000027000000270000BB
:1089200000270001002600000026000000260000AD
:1089300000260000002600010025000000250000A0
:108940000025000000250000002500000025000192
:108950000024000000240000002400000024000087
:108960000024000100230000002300000023000079
:10897000002300000023000000230000002300016A
:10898000002200000022000000220000002200005F
:108990000022000000220001002100000021000050
:1089A0000021000000210000002100000021000043
:1089B0000021000100200000002000000020000035
:1089C0000020000000200000002000000020000027
:1089D00000200001001F0000001F0000001F000019
:1089E000001F0000001F0000001F0000001F00010A
:1089F000001E0000001E0000001E0000001E0000FF
:108A000000257500593A202575202D3E202E2E2E4A
:108A100000257500583A202575202D3E202E2E2E3B
:108A2000004D656173757265642066696C616D6582
:108A30006E742073656E736F72206C6F77206C6537
:108A400076656C3A2025342E3266560A004D6561F3
:108A500073757265642066696C616D656E742073F0
:108A6000656E736F722068696768206C6576656CE7
:108A70003A2025342E3266560A00457874722066F4
:108A8000616E2073706565643A2025640A00507237
