:100000000C9437360C9468360C9468360C94683629
:100010000C9468360C9468360C9468360C946836E8
:100020000C9468360C9468360C9468360C946836D8
:100030000C9468360C9468360C9468360C946836C8
:100040000C9468360C94236D0C9468360C946836C6
:100050000C9468360C9468360D945F800D94D80427
:100060000C9468360C94DA5F0C9468360C946836FD
:100070000C9468360C9468360C9468360C94683688
:100080000D94CE7C0C9468360C9468360C946836CB
:100090000C9468360C9468360C9468360C94683668
:1000A0000C9468360C9468360D94A17C0C946836D8
:1000B0000C9468360C9468360C9468360D94747CF5
:1000C0000C9468360C9468360C9468360C94683638
:1000D0000C9468360C9468360C9468360C94683628
:1000E0000C946836478D368D558D338D588D428DE5
:1000F000398D538D3C8D3F8D17F353F346F404F641
:1001000056F761F771F792014801B0015C016E0189
:100110007801DC01B201BA0150019A017601600157
:100120008C0178019E01420146019401CA016401DB
:1001300080019601CC0168014C018801E201AC010B
:1001400058018401C401CC01D6017C018601E8017B
:100150008A017A0172017A017A017A017A017A01BF
:100160007A017A017A017A017A017A017A017A01B7
:100170007A017A017A017A017A017A017A017A01A7
:100180007A017A017A017A017A016C017A017A01A5
:100190007A017A017A017A017A017A015E017A01A3
:1001A0007A017A017A017A017A017A017A017A0177
:1001B0007A01EA01A801084AD73B3BCE016E84BC14
:1001C000BFFDC12F3D6C74319ABD56833DDA3D00B1
:1001D000C77F11BED9E4BB4C3E916BAAAABE0000FA
:1001E00000803F05A84CCDB2D44EB93836A9020CD8
:1001F00050B9918688083CA6AAAA2ABE00000080B1
:100200003F07634236B79BD8A71A39685618AEBA6B
:10021000AB558C1D3CB7CC5763BD6DEDFD753EF6FF
:10022000177231BF000000803F08000000BE92241A
:1002300049123EABAAAA2ABECDCCCC4C3E0000004F
:1002400080BEABAAAAAA3E00000000BF000000804A
:100250003F0000000000084178D3BB4387D1133D25
:10026000190E3CC3BD4282AD2B3E68EC8276BED9EE
:100270008FE1A93E4C80EFFFBE01C4FF7F3F00002D
:10028000000000000D9486030D949B330D948A03A7
:100290000D9458030D94966E0D9424040D949E6E47
:1002A0000D946A030D94112E0D9423350D942F3A5D
:1002B0000D944A040D948A6B0D944B030D94B10E6A
:1002C0000D9478030D94192E0D94FE030D94D472A1
:1002D0000D941C040D94886B0D94D80E0D9451034D
:1002E0000D9412030D94DE0E0D94B58E0D947403CF
:1002F0000D948F030D94660D0D9477040D94052EC7
:100300000D9408040D942D350D9459040D94810419
:100310000D942C040D94310D0D947C030D94DD345B
:100320000D94092E0D9455030D94F4030D941204AD
:100330000D94318F0D946E030D94E2310D94820370
:100340000D9400350D94D3720D94E7370D94464704
:100350000D94630D0D94A9340D9440040D940B710C
:100360000D9447030D9460030D940D2E0D94E4023B
:100370000D94DA300D9466030D941D2E0D942735DF
:100380000D94CC0C0D94450F0D9463040D949B6E4D
:100390000D944F340D94F9030D948B040D94986EC5
:1003A0000D94152E0D947B2D0D9442490D946D04E2
:1003B0000D942A350D94C3350D945C030D94F533DB
:1003C0000D94F3720D9436040D94EF320D943803AE
:1003D0000D94A20E0D94F50E4E414E494E495459BE
:1003E000494E46CDCCCC3D0AD7233C17B7D1387700
:1003F000CC2B329595E6241FB14F0A000020410016
:1004000000C84200401C4620BCBE4CCA1B0E5AAE5F
:10041000C59D7400407A10F35A00A0724E1809006E
:1004200010A5D4E80000E87648170000E40B540259
:100430000000CA9A3B000000E1F505000080969894
:1004400000000040420F000000A0860100000010E4
:100450002700000000E80300000000640000000026
:10046000000A00000000000100000000002C76D807
:1004700088DC674F0823DFC1DFAE59E1B1B796E5ED
:10048000E3E453C63AE651997696E8E6C28426EB51
:10049000898C9B62ED407C6FFCEFBC9C9F40F2BA64
:1004A000A56FA5F490055A2AF75C936B6CF9676DFC
:1004B000C11BFCE0E40D47FEF520E6B500D0ED9051
:1004C0002E0300943577050080841E080000204E1E
:1004D0000A000000C80C333333330F986E128311B7
:1004E00041EF8D2114893BE65516CFFEE6DB18D18E
:1004F000844B381BF77C1D901DA4BBE42420328460
:10050000725E228100C9F124ECA1E53D27434F4DE5
:100510004D554E49434154494F4E0044525952554E
:100520004E004552524F525300494E464F004543EC
:10053000484F0047322F4733206261642070617258
:10054000616D65746572730A00536C6565702E2E5B
:100550002E00205A3A200020593A2000426564209B
:10056000583A20004D65736820706F696E7420637F
:10057000616E6E6F74206265207265736F6C766554
:10058000640A00436C69636B20746F207265737535
:100590006D652E2E2E004E6F206D6F76652E0045F8
:1005A0006E642066696C65206C6973740A0042652C
:1005B00067696E2066696C65206C6973740A00282F
:1005C0006E6F2066696C6529005344207072696EF5
:1005D00074696E67206279746520004E6F742053D1
:1005E00044207072696E74696E670A004375727296
:1005F000656E742066696C653A200046696C6520FA
:1006000064656C657465643A0044656C6574696F13
:100610006E206661696C65642C2046696C653A20C1
:10062000002569730025696D2025697300256968B7
:100630002025696D20256973002569642025696876
:100640002025696D20256973002569792025696455
:10065000202569682025696D20256973005072691D
:100660006E742074696D653A20006F6E2E0A006FFB
:1006700066662E0A004732362044656275672000A0
:100680002E05290522051B050D056F6666004445EC
:100690004255473A004B494C4C45442E20004D31C1
:1006A00031332053006F6B004D6F646978204269CD
:1006B000672D3630204F66662E002C20002C20003F
:1006C000544845524D414C5F50524F544543544954
:1006D0004F4E004155544F5245504F52545F534472
:1006E0005F53544154555300454D455247454E4381
:1006F000595F50415253455200434153455F4C4965
:100700004748545F4252494748544E45535300545A
:100710004F47474C455F4C494748545300534F4659
:1007200054574152455F504F574552004255494C2E
:10073000445F50455243454E54004C4556454C4944
:100740004E475F44415441005A5F50524F4245006A
:100750004155544F4C4556454C005052494E545FFC
:100760004A4F420050524F4752455353004155544F
:100770004F5245504F52545F54454D5000564F4CC8
:10078000554D455452494300454550524F4D005335
:10079000455249414C5F584F4E5F584F46460046C0
:1007A00049524D574152455F4E414D453A4D617258
:1007B0006C696E20312E312E3942202847697468C9
:1007C00075622920534F555243455F434F44455F5F
:1007D00055524C3A68747470733A2F2F6769746875
:1007E00075622E636F6D2F4D61726C696E46697212
:1007F0006D776172652F4D61726C696E2050524F3A
:10080000544F434F4C5F56455253494F4E3A312E49
:1008100030204D414348494E455F545950453A4D6B
:100820006F646978204269672D36302045585452EC
:10083000554445525F434F554E543A322055554921
:10084000443A63656465326132662D343161322D1C
:10085000343734382D396231322D633535633632D1
:100860006633363766660A002F2F20004D31343547
:1008700020533C696E6465783E206F7574206F6606
:100880002072616E67652028302D31290A002054BE
:1008900000205200416363656C65726174696F6E1C
:1008A0003A2050005741524E494E4721204C6F7715
:1008B000205A204A65726B206D6179206C656164F5
:1008C00020746F20756E77616E7465642070617539
:1008D0007365732E0A00486F74656E64206F6666D8
:1008E000736574733A0020466C6F773A20000001FC
:1008F00036372603FFFFFF353C3D380E0FFFFF3133
:100900002E303E12FFFFFFFF28FF0C0809FFFFFFFC
:100910001A1C18FFFF2A24221EFFFF2C08440AFF7E
:100920003907FF45206F7574206F662072616E670E
:10093000650A00536572766F20003A2000205365E7
:1009400072766F200050726F6265205A204F666683
:100950007365743A200020643A0020693A002070E0
:100960003A00496E76616C696420657874727564CA
:1009700065720A0043290A0061626C656420286D73
:10098000696E2074656D702000436F6C642065781B
:100990007472756465732061726520004E6F206308
:1009A000617365206C696768740A00454550524F51
:1009B0004D204F4B0A003F5A206F7574206F662000
:1009C00072616E676520282D3220746F2032290AEB
:1009D000003A200050726F6265205A204F6666739D
:1009E0006574000000000100000001000080005557
:1009F0005555000000400033333300AAAA2A0049AD
:100A000092240000002000C7711C0099991900D1A0
:100A1000451700555515003BB1130024491200112C
:100A2000111100000010000F0F0F00E3380E0043FB
:100A3000790D00CCCC0C00C3300C00E8A20B006494
:100A4000210B00AAAA0A00703D0A009DD8090042A5
:100A50007B090092240900DCD30800888808001074
:100A600042080000000800F0C107008787070075F2
:100A7000500700711C07003EEB0600A1BC06006990
:100A800090060066660600703E06006118060017B4
:100A9000F4050074D105005BB00500B2900500625A
:100AA0007205005555050078390500B81E0500058A
:100AB0000505004EEC040087D40400A1BD0400909D
:100AC000A7040049920400C17D0400EE690400C738
:100AD000560400444404005C320400082104004130
:100AE000100400000004003FF00300F8E0030026BB
:100AF000D20300C3C30300CCB503003AA803000A25
:100B00009B0300388E0300C08103009F750300D053
:100B1000690300505E03001D530300344803009135
:100B20003D03003333030016290300381F030097E9
:100B3000150300300C0300030303000BFA02004905
:100B4000F10200BAE802005CE002002DD802002D9C
:100B5000D0020059C80200B0C0020031B90200DA68
:100B6000B10200AAAA0200A0A30200BC9C0200FAE3
:100B70009502005C8F0200DF88020082820200453D
:100B80007C02002776020027700200436A02007C84
:100B9000640200D05E02003F590200C853020020E8
:100BA000636F6C6420657874727573696F6E207002
:100BB000726576656E7465640A001000C9021001E2
:100BC0002C014001220170011801B0010E01F00159
:100BD00004015002FA00B002F0003003E600D00336
:100BE000DC009004D2007005C800A006BE0000081A
:100BF000B400B009AA00D00BA000600E96006011EE
:100C00008C000015820020197800C01D6E00A02203
:100C10006400B0275A00902C500000314600E034A8
:100C20003C0010383200903A2800603C1E00A03D85
:100C30001400803E0A00203F000000000000300E3B
:100C40000100C00E0A00500F1400D00F1E006010EB
:100C50002800E010320070113C00F01146007012C4
:100C6000500000135A008013640000146E009014AA
:100C700078001015820090158C00101696009016C2
:100C8000A0001017AA009017B4001018BE0090180A
:100C9000C8001019D2009019DC00101AE600801A62
:100CA000F000001BFA00801B0401F01B0E01701CF9
:100CB0001801F01C2201601D2C01E01D3601501EA0
:100CC0004001D01E4A01401F5401B01F5E01302078
:100CD0006801A020720110217C0190218601002270
:100CE00090016026F401902A5802802EBC025032F6
:100CF0002003E03584035039E803803C4C0424F49D
:100D000004D9201BC40C5C0E9804C4095F0265075B
:100D10007101F405F900FB04B30048048700C10326
:100D200069005803550003034500BE023A008402DF
:100D3000310053022A002902250004022000E401A8
:100D40001C00C8011900AF011700980114008401AC
:100D50001300710110006101100051010E004301E8
:100D60000D0036010B002B010B0020010B001501BB
:100D700009000C01090003010800FB000800F30052
:100D80000800EB000700E4000600DE000600D800C3
:100D90000600D2000600CC000500C7000500C20016
:100DA0000500BD000400B9000400B5000400B10056
:100DB0000400AD000400A9000400A5000300A20087
:100DC00003009F0004009B000300980003009500AF
:100DD000020093000300900003008D0002008B00CE
:100DE00003008800020086000200840003008100E6
:100DF00002007F0002007D0002007B0002007900FB
:100E00000200770001007600020074000200720008
:100E10000100710002006F0002006D0001006C0013
:100E200002006A000100690002006700010066001C
:100E30000100650001006400020062000100610021
:100E40000100600001005F0002005D0001005C0025
:100E500001005B0001005A00010059000100580028
:100E60000100570001005600010055000100540028
:100E70000100530000005300010052000100510026
:100E80000100500001004F0001004E0000004E0024
:100E900001004D0001004C0001004B0000004B0020
:100EA00001004A000100490001004800000048001C
:100EB0000100470001004600000046000100450017
:100EC0000000450001004400010043000000430011
:100ED000010042000000420001004100000041000A
:100EE0000100400001003F0000003F0001003E0003
:100EF00000003E0001003D0000003D0001003C00FC
:100F000000003C0000003C0001003B0000003B00F2
:100F100001003A0000003A000100390000003900E9
:100F200001003800000038000000380001003700E0
:100F300000003700010036000000360000003600D7
:100F400001003500000035000000350001003400CC
:100F500000003400000034000100330000003300C2
:100F600000003300010032000000320000003200B7
:100F700001003100000031000000310001003000AC
:100F8000000030000000300001002F0000002F00A2
:100F900000002F0000002F0001002E0000002E0096
:100FA00000002E0001002D0000002D0000002D008B
:100FB00000002D0001002C0000002C0000002C007F
:100FC00000002C0001002B0000002B0000002B0073
:100FD00000002B0001002A0000002A0000002A0067
:100FE00000002A000100290000002900000029005B
:100FF000000029000000290001002800000028004E
:101000000000280000002800000028000100270040
:101010000000270000002700000027000000270034
:101020000100260000002600000026000000260027
:10103000000026000100250000002500000025001A
:10104000000025000000250000002500010024000C
:101050000000240000002400000024000000240000
:1010600001002300000023000000230000002300F3
:1010700000002300000023000000230001002200E4
:1010800000002200000022000000220000002200D8
:1010900000002200010021000000210000002100CA
:1010A00000002100000021000000210000002100BC
:1010B00001002000000020000000200000002000AF
:1010C00000002000000020000000200000002000A0
:1010D00001001F0000001F0000001F0000001F0093
:1010E00000001F0000001F0000001F0001001E0084
:1010F00000001E0000001E0000001E00000024F47E
:10110000D43050C38E20C2A24017828B7011127A45
:10111000910D816CD90AA861E108C7586607615131
:1011200043061E4B5D05C145A7041A411104093D44
:101130009803713931034036DB0265339102D430B4
:101140005402802E1D02632CEE01752AC501B028C1
:10115000A001102781018F2564012B244B01E0227F
:101160003401AC211F018D200D01801FFC00841E65
:10117000ED00971DDF00B81CD200E61BC600201B47
:10118000BC00641AB200B219A8000A19A0006A18BB
:101190009900D117910040178B00B51684003116C5
:1011A0007E00B31579003A157300C7146F00581408
:1011B0006A00EE1366008813630025135E00C712F1
:1011C0005B006C12570015125400C11151007011D0
:1011D0004F0021114B00D61049008D1047004610DA
:1011E000440002104200C00F4000800F3E00420F3A
:1011F0003C00060F3B00CB0E3800930E37005C0E10
:101200003500270E3400F30D3200C10D3100900D72
:101210003000600D2E00320D2D00050D2C00D90C74
:101220002B00AE0C2900850C29005C0C2700350C26
:1012300027000E0C2600E80B2400C40B2400A00B92
:1012400023007D0B23005A0B2100390B2100180BC2
:101250002000F80A1F00D90A1E00BB0A1E009D0AC2
:101260001D00800A1D00630A1C00470A1B002C0A8F
:101270001B00110A1A00F7091A00DD091900C40938
:101280001900AB091900920917007B0918006309BE
:1012900017004C09160036091600200916000A0925
:1012A0001500F5081500E0081400CC081400B80873
:1012B0001400A4081400900813007D0812006B08A5
:1012C00013005808120046081200340811002308C1
:1012D00011001208110001081100F0071000E007CA
:1012E0001000D0071000C0071000B0070F00A107C2
:1012F000100091070E0083070F0074070F006507A9
:101300000E0057070E0049070E003B070D002E0781
:101310000E0020070D0013070D0006070D00F9064B
:101320000C00ED060D00E0060C00D4060C00C8060B
:101330000C00BC060C00B0060C00A4060B009906BD
:101340000C008D060B0082060B0077060B006C0666
:101350000B0061060A0057060B004C060A00420605
:101360000A0038060A002E060A0024060A001A0699
:101370000A001006090007060A00FD050900F40529
:101380000900EB050900E2050900D9050900D005AF
:101390000900C7050900BE050900B5050800AD052F
:1013A0000800A50509009C050800940508008C05A7
:1013B0000800840508007C050800740508006C0519
:1013C0000700650508005D050700560508004E0585
:1013D00007004705070040050800380507003105EC
:1013E00007002A050700230507001C05060016054F
:1013F00007000F0507000805060002050700FB04AB
:101400000600F5040700EE040600E8040600E20406
:101410000700DB040600D5040600CF040600C9045B
:101420000600C3040600BD040600B7040600B104AC
:101430000500AC040600A6040600A00405009B04F9
:10144000060095040500900406008A040500850442
:101450000500800406007A04050075040500700488
:1014600005006B04050066040500610405005C04CA
:10147000050057040500520405004D04050048040A
:101480000500430405003E0404003A040500350449
:101490000500300404002C04050027040400230484
:1014A00005001E0404001A040400160405001104BB
:1014B00004000D04040009040500040404000004F1
:1014C0000400FC030400F8030400F4030400F00328
:1014D0000400EC030400E8030400E4030400E00358
:1014E0000400DC030400D8030400D4030400D00388
:1014F0000400CC030400C8030300C50303000A4D25
:10150000657368206F6E6C79207061727469616CAC
:101510006C7920706F70756C617465642E0A00249C
:10152000F404D9201BC40C5C0E9804C4095F026546
:10153000077101F405F900FB04B30048048700C1FA
:101540000369005803550003034500BE023A0084B6
:1015500002310053022A002902250004022000E47F
:10156000011C00C8011900AF011700980114008484
:10157000011300710110006101100051010E0043C0
:10158000010D0036010B002B010B0020010B001593
:101590000109000C01090003010800FB000800F329
:1015A000000800EB000700E4000600DE000600D89B
:1015B000000600D2000600CC000500C7000500C2EE
:1015C000000500BD000400B9000400B5000400B12E
:1015D000000400AD000400A9000400A5000300A25F
:1015E0000003009F0004009B000300980003009587
:1015F00000020093000300900003008D0002008BA6
:1016000000030088000200860002008400030081BD
:101610000002007F0002007D0002007B00020079D2
:1016200000020077000100760002007400020072E0
:10163000000100710002006F0002006D0001006CEB
:101640000002006A000100690002006700010066F4
:1016500000010065000100640002006200010061F9
:10166000000100600001005F0002005D0001005CFD
:101670000001005B0001005A000100590001005800
:101680000001005700010056000100550001005400
:1016900000010053000000530001005200010051FE
:1016A000000100500001004F0001004E0000004EFC
:1016B0000001004D0001004C0001004B0000004BF8
:1016C0000001004A000100490001004800000048F4
:1016D00000010047000100460000004600010045EF
:1016E00000000045000100440001004300000043E9
:1016F00000010042000000420001004100000041E2
:10170000000100400001003F0000003F0001003EDA
:101710000000003E0001003D0000003D0001003CD3
:101720000000003C0000003C0001003B0000003BCA
:101730000001003A0000003A0001003900000039C1
:1017400000010038000000380000003800010037B8
:1017500000000037000100360000003600000036AF
:1017600000010035000000350000003500010034A4
:10177000000000340000003400010033000000339A
:10178000000000330001003200000032000000328F
:101790000001003100000031000000310001003084
:1017A00000000030000000300001002F0000002F7A
:1017B0000000002F0000002F0001002E0000002E6E
:1017C0000000002E0001002D0000002D0000002D63
:1017D0000000002D0001002C0000002C0000002C57
:1017E0000000002C0001002B0000002B0000002B4B
:1017F0000000002B0001002A0000002A0000002A3F
:101800000000002A00010029000000290000002932
:101810000000002900000029000100280000002825
:101820000000002800000028000000280001002718
:10183000000000270000002700000027000000270C
:1018400000010026000000260000002600000026FF
:1018500000000026000100250000002500000025F2
:1018600000000025000000250000002500010024E4
:1018700000000024000000240000002400000024D8
:1018800000010023000000230000002300000023CB
:1018900000000023000000230000002300010022BC
:1018A00000000022000000220000002200000022B0
:1018B00000000022000100210000002100000021A2
:1018C0000000002100000021000000210000002194
:1018D0000001002000000020000000200000002087
:1018E0000000002000000020000000200000002078
:1018F0000001001F0000001F0000001F0000001F6B
:101900000000001F0000001F0000001F0001001E5B
:101910000000001E0000001E0000001E0000002449
:10192000F4D43050C38E20C2A24017828B701112A3
:101930007A910D816CD90AA861E108C758660761E0
:101940005143061E4B5D05C145A7041A4111040908
:101950003D9803713931034036DB0265339102D47F
:10196000305402802E1D02632CEE01752AC501B091
:1019700028A001102781018F2564012B244B01E051
:10198000223401AC211F018D200D01801FFC008439
:101990001EED00971DDF00B81CD200E61BC600201C
:1019A0001BBC00641AB200B219A8000A19A0006A90
:1019B000189900D117910040178B00B5168400319B
:1019C000167E00B31579003A157300C7146F0058DE
:1019D000146A00EE1366008813630025135E00C7C7
:1019E000125B006C12570015125400C111510070A7
:1019F000114F0021114B00D61049008D10470046B1
:101A000010440002104200C00F4000800F3E004210
:101A10000F3C00060F3B00CB0E3800930E37005CE6
:101A20000E3500270E3400F30D3200C10D31009049
:101A30000D3000600D2E00320D2D00050D2C00D94B
:101A40000C2B00AE0C2900850C29005C0C270035FE
:101A50000C27000E0C2600E80B2400C40B2400A069
:101A60000B23007D0B23005A0B2100390B2100189A
:101A70000B2000F80A1F00D90A1E00BB0A1E009D99
:101A80000A1D00800A1D00630A1C00470A1B002C67
:101A90000A1B00110A1A00F7091A00DD091900C40F
:101AA000091900AB091900920917007B0918006396
:101AB0000917004C09160036091600200916000AFD
:101AC000091500F5081500E0081400CC081400B84A
:101AD000081400A4081400900813007D0812006B7D
:101AE0000813005808120046081200340811002399
:101AF0000811001208110001081100F0071000E0A1
:101B0000071000D0071000C0071000B0070F00A199
:101B100007100091070E0083070F0074070F006580
:101B2000070E0057070E0049070E003B070D002E59
:101B3000070E0020070D0013070D0006070D00F922
:101B4000060C00ED060D00E0060C00D4060C00C8E3
:101B5000060C00BC060C00B0060C00A4060B009995
:101B6000060C008D060B0082060B0077060B006C3E
:101B7000060B0061060A0057060B004C060A0042DD
:101B8000060A0038060A002E060A0024060A001A71
:101B9000060A001006090007060A00FD050900F400
:101BA000050900EB050900E2050900D9050900D087
:101BB000050900C7050900BE050900B5050800AD07
:101BC000050800A50509009C050800940508008C7F
:101BD000050800840508007C050800740508006CF1
:101BE000050700650508005D050700560508004E5D
:101BF00005070047050700400508003805070031C4
:101C00000507002A050700230507001C0506001626
:101C10000507000F0507000805060002050700FB81
:101C2000040600F5040700EE040600E8040600E2DE
:101C3000040700DB040600D5040600CF040600C933
:101C4000040600C3040600BD040600B7040600B184
:101C5000040500AC040600A6040600A00405009BD1
:101C600004060095040500900406008A040500851A
:101C7000040500800406007A040500750405007060
:101C80000405006B04050066040500610405005CA2
:101C900004050057040500520405004D04050048E2
:101CA000040500430405003E0404003A0405003521
:101CB000040500300404002C04050027040400235C
:101CC0000405001E0404001A040400160405001193
:101CD0000404000D040400090405000404040000C9
:101CE000040400FC030400F8030400F4030400F0FF
:101CF000030400EC030400E8030400E4030400E030
:101D0000030400DC030400D8030400D4030400D05F
:101D1000030400CC030400C8030300C503030053FD
:101D200074617274206F662075626C2E6C696E65CA
:101D30005F746F5F64657374696E6174696F6E5F01
:101D400063617274657369616E2829006F75742010
:101D50006F6620626F756E647320696E2075626CA9
:101D60002E6C696E655F746F5F64657374696E6114
:101D700074696F6E5F63617274657369616E28293F
:101D80000046494E414C5F4D4F564520696E2075C7
:101D9000626C2E6C696E655F746F5F6465737469E5
:101DA0006E6174696F6E5F63617274657369616E91
:101DB000282900766572746963616C206D6F7665A1
:101DC00020646F6E6520696E2075626C2E6C696E82
:101DD000655F746F5F64657374696E6174696F6E5B
:101DE0005F63617274657369616E282900686F7240
:101DF000697A6F6E74616C206D6F766520646F6EAA
:101E00006520696E2075626C2E6C696E655F746FFB
:101E10005F64657374696E6174696F6E5F6361722C
:101E200074657369616E28290067656E6572696300
:101E3000206D6F766520646F6E6520696E20756217
:101E40006C2E6C696E655F746F5F64657374696E28
:101E50006174696F6E5F63617274657369616E2826
:101E600029004D6F76696E672E2E2E004269672D10
:101E700036302043616C6962726174696F6E004D27
:101E8000343238005A2D4F66667365743A20004725
:101E90003238004D3130392053256900473239201E
:101EA0005031004275696C64204D65736800486F5D
:101EB00074656E642054656D7000486F74656E645F
:101EC0002054656D7000486F74656E642054656DB4
:101ED00070004275696C6420437573746F6D204D9A
:101EE000657368004732392050362043202D002E7C
:101EF00025690045646974204D657368004865690B
:101F000067687420416D6F756E7400486569676815
:101F10007420416D6F756E74004865696768742040
:101F2000416D6F756E7400496E666F2073637265E4
:101F3000656E0055424C20546F6F6C730047323908
:101F4000205034205239393920540046696E6520BA
:101F500054756E6520416C6C004732392050342036
:101F6000540046696E652054756E6520436C6F732E
:101F70006573740041646A757374204D65736820DD
:101F800048656967687400496E666F20736372659F
:101F9000656E004732362043204225692048256976
:101FA00020500047323800473239204A2569005511
:101FB000424C20546F6F6C73005369646520506FFE
:101FC000696E7473005369646520506F696E747331
:101FD000005369646520506F696E7473004C6576B8
:101FE000656C204D6573680055424C20546F6F6CD2
:101FF0007300473239204A3000332D506F696E74B8
:10200000204C6576656C696E670047726964204D87
:10201000657368204C6576656C696E6700496E660D
:102020006F2073637265656E00473239205033202C
:102030005220432E2569004275696C64204D6573FA
:10204000680046696C6C2D696E20416D6F756E7409
:102050000046696C6C2D696E20416D6F756E740061
:1020600046696C6C2D696E20416D6F756E7400470A
:10207000323920503320543000536D617274204641
:10208000696C6C2D696E0047323920503220422035
:102090005430004D616E75616C2046696C6C2D6921
:1020A0006E00496E666F2073637265656E004D65E4
:1020B000736820696E76616C6964617465642E0A68
:1020C0000055424C20546F6F6C73004732380A4DF4
:1020D00031303920533138300A4732392050310AF3
:1020E0004D313034205330004275696C6420504CBF
:1020F00041204D657368004732380A4D3130392030
:10210000533234300A4732392050310A4D3130349D
:10211000205330004275696C6420414253204D6564
:102120007368004275696C6420437573746F6D2029
:102130004D657368004732380A4732392050310004
:102140004275696C64204D6573680046696C6C2D3E
:10215000696E204D65736800473239205031204345
:1021600000436F6E74696E756520426564204D652D
:10217000736800496E76616C696461746520416CB6
:102180006C00473239204900496E76616C696461A0
:10219000746520436C6F7365737400496E666F20BD
:1021A00073637265656E00486F6D696E672058597C
:1021B0005A0047323800556E696669656420426589
:1021C00064204C6576656C696E670047323920542F
:1021D00030004F757470757420666F7220486F738D
:1021E0007400473239205431004F75747075742073
:1021F000666F72204353560047323920532D310009
:102200004F6666205072696E746572204261636B1E
:102210007570004F7574707574204D657368204D2E
:10222000617000556E696669656420426564204C82
:102230006576656C696E67004275696C64204D65F2
:1022400073680047323920493939390A4732392011
:1022500050322042205430004D616E75616C6C79B3
:10226000204275696C64204D6573680056616C6925
:1022700064617465204D6573680045646974204D20
:10228000657368004D657368204C6576656C696E92
:1022900067004175746F20686F6D650047323800C4
:1022A000312E53746172742050726F6365737300C2
:1022B000473238205820590A2047312058333030CF
:1022C000205933303020463530303000476F20748D
:1022D0006F204C2E536372657700473120583020B1
:1022E000593330302046353030300A204D383400F4
:1022F000322E476F20746F2046726F6E7420522EFC
:102300005363726577004731205836313020593396
:10231000302046353030300A204D383400312E47D9
:102320006F20746F205265617220522E5363726564
:10233000770047312058363130205936303020462A
:10234000353030300A204D3834004175746F746573
:102350006D70005049442D49005049442D440041BE
:102360006363656C00412D72657472616374004132
:102370002D74726176656C00567A2D6A65726B00F9
:102380005873746570732F6D6D0059737465707335
:102390002F6D6D005A73746570732F6D6D004573EA
:1023A000746570732F6D6D0046696C2E20446961F1
:1023B0002E0046696C2E204469612E20310046694A
:1023C0006C2E204469612E2032005072696E742098
:1023D00066726F6D205344005072696E742066728D
:1023E0006F6D205344004368616E67652066696CB9
:1023F000616D656E7400696E206D6F76655F746FD8
:10240000282920666565645F76616C756520666F56
:10241000722058593A004C656176696E67204732E0
:102420003600446F6E65205072696D696E670055A5
:102430007365722D436F6E74726F6C6C656420509F
:1024400072696D65004669786564204C656E6774D5
:1024500068205072696D652E004D65736820566165
:102460006C69646174696F6E2053746F7070656419
:102470002E002C2065793D0029202D3E20286578EE
:102480003D002C2073793D0020436F6E6E656374B0
:10249000696E672077697468207665727469636114
:1024A0006C206C696E65202873783D002C2065795E
:1024B0003D0029202D3E202865783D002C20737991
:1024C0003D0020436F6E6E656374696E67207769A7
:1024D000746820686F72697A6F6E74616C206C69C1
:1024E0006E65202873783D004C656176696E6720C3
:1024F000473236003F5370656369666965642058EA
:102500002C5920636F6F7264696E617465206F75FA
:1025100074206F6620626F756E64732E0A003F2808
:10252000522965706561742076616C7565206E6FE7
:102530007420706C61757369626C653B206D757396
:1025400074206265206174206C6561737420312E83
:102550000A003F537065636966696564206E6F7A2F
:102560007A6C652074656D70657261747572652032
:102570006E6F7420706C61757369626C652E0A00F1
:102580003F5370656369666965642066696C616D57
:10259000656E742073697A65206E6F7420706C614B
:1025A000757369626C652E0A003F537065636966D6
:1025B000696564207072696D65206C656E6774680A
:1025C000206E6F7420706C61757369626C652E0A81
:1025D000003F537065636966696564206E6F7A7A3F
:1025E0006C652073697A65206E6F7420706C6175FC
:1025F0007369626C652E0A003F5370656369666992
:1026000065642052657472616374696F6E204D75E4
:102610006C7469706C696572206E6F7420706C6187
:10262000757369626C652E0A003F5265747261634E
:1026300074696F6E204D756C7469706C6965722079
:102640006D75737420626520737065636966696572
:10265000642E0A003F537065636966696564206C87
:102660006179657220686569676874206E6F74208F
:10267000706C61757369626C652E0A003F537065FA
:10268000636966696564206265642074656D706560
:10269000726174757265206E6F7420706C617573F1
:1026A00069626C65202834302D31343043292E0A7C
:1026B0000047323620636F6D6D616E642073746104
:1026C000727465642E2057616974696E6720666F45
:1026D00072206865617465722873292E0A0024F4DB
:1026E000D43050C38E20C2A24017828B7011127A50
:1026F000910D816CD90AA861E108C758660761513C
:1027000043061E4B5D05C145A7041A411104093D4E
:102710009803713931034036DB0265339102D430BE
:102720005402802E1D02632CEE01752AC501B028CB
:10273000A001102781018F2564012B244B01E02289
:102740003401AC211F018D200D01801FFC00841E6F
:10275000ED00971DDF00B81CD200E61BC600201B51
:10276000BC00641AB200B219A8000A19A0006A18C5
:102770009900D117910040178B00B51684003116CF
:102780007E00B31579003A157300C7146F00581412
:102790006A00EE1366008813630025135E00C712FB
:1027A0005B006C12570015125400C11151007011DA
:1027B0004F0021114B00D61049008D1047004610E4
:1027C000440002104200C00F4000800F3E00420F44
:1027D0003C00060F3B00CB0E3800930E37005C0E1A
:1027E0003500270E3400F30D3200C10D3100900D7D
:1027F0003000600D2E00320D2D00050D2C00D90C7F
:102800002B00AE0C2900850C29005C0C2700350C30
:1028100027000E0C2600E80B2400C40B2400A00B9C
:1028200023007D0B23005A0B2100390B2100180BCC
:102830002000F80A1F00D90A1E00BB0A1E009D0ACC
:102840001D00800A1D00630A1C00470A1B002C0A99
:102850001B00110A1A00F7091A00DD091900C40942
:102860001900AB091900920917007B0918006309C8
:1028700017004C09160036091600200916000A092F
:102880001500F5081500E0081400CC081400B8087D
:102890001400A4081400900813007D0812006B08AF
:1028A00013005808120046081200340811002308CB
:1028B00011001208110001081100F0071000E007D4
:1028C0001000D0071000C0071000B0070F00A107CC
:1028D000100091070E0083070F0074070F006507B3
:1028E0000E0057070E0049070E003B070D002E078C
:1028F0000E0020070D0013070D0006070D00F90656
:102900000C00ED060D00E0060C00D4060C00C80615
:102910000C00BC060C00B0060C00A4060B009906C7
:102920000C008D060B0082060B0077060B006C0670
:102930000B0061060A0057060B004C060A0042060F
:102940000A0038060A002E060A0024060A001A06A3
:102950000A001006090007060A00FD050900F40533
:102960000900EB050900E2050900D9050900D005B9
:102970000900C7050900BE050900B5050800AD0539
:102980000800A50509009C050800940508008C05B1
:102990000800840508007C050800740508006C0523
:1029A0000700650508005D050700560508004E058F
:1029B00007004705070040050800380507003105F6
:1029C00007002A050700230507001C050600160559
:1029D00007000F0507000805060002050700FB04B5
:1029E0000600F5040700EE040600E8040600E20411
:1029F0000700DB040600D5040600CF040600C90466
:102A00000600C3040600BD040600B7040600B104B6
:102A10000500AC040600A6040600A00405009B0403
:102A2000060095040500900406008A04050085044C
:102A30000500800406007A04050075040500700492
:102A400005006B04050066040500610405005C04D4
:102A5000050057040500520405004D040500480414
:102A60000500430405003E0404003A040500350453
:102A70000500300404002C0405002704040023048E
:102A800005001E0404001A040400160405001104C5
:102A900004000D04040009040500040404000004FB
:102AA0000400FC030400F8030400F4030400F00332
:102AB0000400EC030400E8030400E4030400E00362
:102AC0000400DC030400D8030400D4030400D00392
:102AD0000400CC030400C8030300C503030024F46E
:102AE00004D9201BC40C5C0E9804C4095F0265075E
:102AF0007101F405F900FB04B30048048700C10329
:102B000069005803550003034500BE023A008402E1
:102B1000310053022A002902250004022000E401AA
:102B20001C00C8011900AF011700980114008401AE
:102B30001300710110006101100051010E004301EA
:102B40000D0036010B002B010B0020010B001501BD
:102B500009000C01090003010800FB000800F30054
:102B60000800EB000700E4000600DE000600D800C5
:102B70000600D2000600CC000500C7000500C20018
:102B80000500BD000400B9000400B5000400B10058
:102B90000400AD000400A9000400A5000300A20089
:102BA00003009F0004009B000300980003009500B1
:102BB000020093000300900003008D0002008B00D0
:102BC00003008800020086000200840003008100E8
:102BD00002007F0002007D0002007B0002007900FD
:102BE000020077000100760002007400020072000B
:102BF0000100710002006F0002006D0001006C0016
:102C000002006A000100690002006700010066001E
:102C10000100650001006400020062000100610023
:102C20000100600001005F0002005D0001005C0027
:102C300001005B0001005A0001005900010058002A
:102C4000010057000100560001005500010054002A
:102C50000100530000005300010052000100510028
:102C60000100500001004F0001004E0000004E0026
:102C700001004D0001004C0001004B0000004B0022
:102C800001004A000100490001004800000048001E
:102C90000100470001004600000046000100450019
:102CA0000000450001004400010043000000430013
:102CB000010042000000420001004100000041000C
:102CC0000100400001003F0000003F0001003E0005
:102CD00000003E0001003D0000003D0001003C00FE
:102CE00000003C0000003C0001003B0000003B00F5
:102CF00001003A0000003A000100390000003900EC
:102D000001003800000038000000380001003700E2
:102D100000003700010036000000360000003600D9
:102D200001003500000035000000350001003400CE
:102D300000003400000034000100330000003300C4
:102D400000003300010032000000320000003200B9
:102D500001003100000031000000310001003000AE
:102D6000000030000000300001002F0000002F00A4
:102D700000002F0000002F0001002E0000002E0098
:102D800000002E0001002D0000002D0000002D008D
:102D900000002D0001002C0000002C0000002C0081
:102DA00000002C0001002B0000002B0000002B0075
:102DB00000002B0001002A0000002A0000002A0069
:102DC00000002A000100290000002900000029005D
:102DD0000000290000002900010028000000280050
:102DE0000000280000002800000028000100270043
:102DF0000000270000002700000027000000270037
:102E00000100260000002600000026000000260029
:102E1000000026000100250000002500000025001C
:102E2000000025000000250000002500010024000E
:102E30000000240000002400000024000000240002
:102E400001002300000023000000230000002300F5
:102E500000002300000023000000230001002200E6
:102E600000002200000022000000220000002200DA
:102E700000002200010021000000210000002100CC
:102E800000002100000021000000210000002100BE
:102E900001002000000020000000200000002000B1
:102EA00000002000000020000000200000002000A2
:102EB00001001F0000001F0000001F0000001F0095
:102EC00000001F0000001F0000001F0001001E0086
:102ED00000001E0000001E0000001E00000039302F
:102EE00000003325000087190000B00F0000DB0848
:102EF0000000BD040000740200003F0100005265A4
:102F000073657420424C546F756368004D323830DD
:102F1000205030205331363000424C546F75636876
:102F20002053656C662D54657374004D3238302023
:102F30005030205331323000507265686561742022
:102F4000414253005072656865617420504C4100E5
:102F5000436F6F6C646F776E0044697361626C6578
:102F6000207374657070657273004D383400486F5B
:102F70006D65205A00473238205A00486F6D652031
:102F80005900473238205900486F6D652058004776
:102F900032382058004175746F20686F6D650047A6
:102FA0003238004D6F76652061786973004D616934
:102FB0006E004D6F76652058004D6F766520590084
:102FC0004D6F7665205A004578747275646572326B
:102FD00000457874727564657231004D6F766520B6
:102FE000302E316D6D004D6F766520316D6D004D69
:102FF0006F76652031306D6D004D6F76652061789C
:103000006973004578747275646572004D6F7665FA
:10301000205A004D6F76652059004D6F7665205817
:103020000045787472756465723200457874727503
:1030300064657231004578747275646572004D6F15
:103040007665205A004D6F76652059004D6F766584
:103050002058005072657061726500496E6974692C
:10306000616C697A6520454550524F4D00436F6E43
:1030700074726F6C00526573746F7265206661695B
:103080006C73616665004C6F61642073657474696C
:103090006E677300496E697469616C697A65204571
:1030A0004550524F4D0053746F72652073657474B0
:1030B000696E677300424C546F7563680046696CB3
:1030C000616D656E74004D6F74696F6E0054656D4F
:1030D0007065726174757265004D61696E005A2089
:1030E0004F66667365742043616C696272617469CE
:1030F0006F6E00556E696669656420426564204C98
:103100006576656C696E670054696C742043616C08
:103110006962726174696F6E0050726F62652043FC
:10312000616C6962726174696F6E004D61696E00F5
:1031300000002200250028002B002E003100340062
:1031400002010000050108010B010000200023001E
:10315000260029002C002F0032000001000003018E
:10316000060109010505050507050808080802020A
:1031700002020A0A08080404040401010101010111
:1031800001010303030303030303040707070C0CF4
:103190000C0C0C0C0C0C02020202060606060606BB
:1031A00006060B0B0B0B0B0B0B0B01021020200860
:1031B0000810204010204080020102010804020192
:1031C0000102040810204080804020100804020101
:1031D000800402018040201008040201080402015A
:1031E00001020408102040800102040810204080E1
:1031F00000000A0B02090C0D0E0807030401000071
:1032000000000000000000000000000000000000BE
:10321000000000000000000000000000121110007B
:10322000000000000000000000000000000000009E
:10323000000000000000000000000000000000008E
:10324000000000000000000000000000000000007E
:10325000000000000000000000000000000000006E
:10326000000000000000000000000000000000005E
:10327000000000000000000000000000000000004E
:10328000000000000000000000000000000000003E
:10329000000000000000000000000000000000002E
:1032A000000000000000000FFE07FE000000000705
:1032B000F3F800000000000FFE07FE00000000070A
:1032C000F3F800000000000FFE0FFE0000000007F2
:1032D000F3F800000000000FFF0FFE0000000007E1
:1032E000E3F800000000000FFF1FFE0000000007D1
:1032F000E00000000000000FFF1FFE01FE0007FFBE
:10330000E3F8FF8FF000000FFF1FFC07FFC01FFF57
:10331000E3F87F9FE000000FFFBFFC1FFFE03FFFCF
:10332000E3F83FDFC000000FFFBFFC1FFFF07FFF8F
:10333000E3F83FFF8000000FFFBEFC3FFFF0FF0FF0
:10334000E3F01FFF8000000FDFFFFC7FC7F8FE0FD8
:10335000E3F00FFF0000000FDFFFFC7F03F9FC0F1D
:10336000E3F00FFE0000001FDFFFFC7F03F9FC0FFE
:10337000C3F007FC0000001FDFFDFC7F03F9FC0F1A
:10338000C3F00FFE0000001FCFFDFC7F07F9FC1FFC
:10339000C3F00FFF0000001FCFFDFC7F8FF9FE3F41
:1033A000C3F01FFF0000001FCFF9FC3FFFF1FFFF3C
:1033B000C3F03FFF8000001FCFF9FC3FFFF0FFFF8D
:1033C000C7F03FBFC000001FCFF9FC1FFFE0FFFFA9
:1033D000C7F07F3FC000001FC7F1FC0FFF807FFFD9
:1033E000C7F0FF1FE000001FC7F1FC01FE001F9F98
:1033F000C7F1FE1FF0000000000000000000000008
:1034000000000000000000000000000000000000BC
:1034100000000000000000000000000000000000AC
:10342000000000000000000000000000000000009C
:10343000000000000000000000000000000000008C
:10344000000000000000000000000000000000007C
:10345000000000000000000000000000000000006C
:10346000000000000000000000000000000000005C
:10347000000000000000000000000000000000004C
:10348000000000000000000000000000000000003C
:10349000000000000000000000000000000000002C
:1034A00000000000000000000001FFE3E000000752
:1034B000E03F0000000000000001FFF3E000000F0B
:1034C000C07FC000000000000001FFF00000001FEE
:1034D00080FFC000000000000001F1F3E0FE001FCB
:1034E00000FBE000000000000001F1F3E1FF803E7E
:1034F00001F3E000000000000001FFE3E3FF803E75
:10350000F1F3E000000000000001FFC3E7EF807D61
:10351000F9F3E000000000000001FFE3E7CF807F47
:10352000F9F3E000000000000001F1F3E7CF807C38
:10353000F9F3E000000000000001F1F3E7DF807C18
:10354000F9F7C000000000000001FFF3E7FF807FF3
:10355000F8FFC000000000000001FFE3E3FF803F30
:10356000F0FF8000000000000001FFC3E1FF800FBA
:10357000C03F00000000000000000000000F8000BD
:10358000000000000000000000000000000F8000AC
:10359000000000000000000000000000001F80008C
:1035A00000000000000000000000000003FF000019
:1035B00000000000000000000000000003FE00000A
:1035C00000000000000000000000000000000000FB
:1035D00000000000000000000000000000000000EB
:1035E00000000000000000000000000000000000DB
:1035F00000000000000000000000000000000000CB
:1036000000000000000000000000000000000000BA
:1036100000000000000000000000000000000000AA
:10362000000000000000000000000000000000009A
:103630000000000000001FFFFFFFFFFFFF60000011
:10364000000001FF400000000000FF8000000000BB
:10365000007F83CF00000C303F87FF80000C301FBD
:10366000867980000C000F8C30C7838C30E78C305B
:10367000CFC7CC31F38C30DCECEC33B98C30D86C68
:103680006C33198C30D06C0C33198C30D86C0C33F3
:10369000198C30DC6C0E3B198C30CF7C079F198C59
:1036A00030C77C038F19400000000000026000005A
:1036B000000000061FFFFFFFFFFFF82020506C6195
:1036C0006E6E657242756666657242797465733AAC
:1036D00020002046726565204D656D6F72793A2035
:1036E00000436F6D70696C65643A204A756C2020E8
:1036F0003320323031390A00207C20417574686FE4
:10370000723A20284D6F646978290A0032303138C6
:103710002D30372D333100204C6173742055706487
:10372000617465643A2000312E312E39420A004D11
:1037300061726C696E0020536F66747761726520E8
:1037400052657365740A00205761746368646F671B
:103750002052657365740A002042726F776E206F85
:1037600075742052657365740A002045787465721B
:103770006E616C2052657365740A00506F776572D4
:1037800055700A0073746172740A006175746F2554
:10379000692E67006572726F722077726974696E44
:1037A0006720746F2066696C650A00456E647374E7
:1037B0006F70732025632025632025632025630017
:1037C000205A3A0020593A0020583A00656E647336
:1037D000746F7073206869743A2000446F6E6520BE
:1037E000736176696E672066696C652E0A004D32DA
:1037F000390020204E6F7A7A6C653A2000200068EC
:10380000656174206E6F7A7A6C652E0050726573F4
:103810007320627574746F6E20746F0020204E6F79
:103820007A7A6C653A2000746F20636F6E74696EEB
:1038300075652E2E2E00616E642070726573732084
:10384000627574746F6E00496E7365727420666978
:103850006C616D656E740020204E6F7A7A6C653AEB
:103860002000200066696C616D656E74206C6F616C
:1038700064005761697420666F720020204E6F7A71
:103880007A6C653A2000200066696C616D656E7423
:10389000207075726765005761697420666F7200E9
:1038A000746F20726573756D650057616974206669
:1038B0006F72207072696E74004361726420726569
:1038C0006D6F766564004361726420696E73657222
:1038D000746564000E00000A01000D000A01000F6B
:1038E000090000000F0008002066726F6D206375EC
:1038F0007272656E74206D6573682E0A005375626E
:103900007472616374696E67206D65736820696E97
:1039100020736C6F7420003F557365203020746FE6
:1039200020003F496E76616C69642073746F726128
:10393000676520736C6F742E0A003F5573652030E5
:1039400020746F20003F53746F7261676520736C41
:103950006F7420232072657175697265642E0A0088
:103960003F454550524F4D2073746F72616765201B
:103970006E6F7420617661696C61626C652E0A00FD
:103980004D6573682045646974696E672053746F70
:103990007070656400446F6E652045646974696E7B
:1039A00067204D6573680A00446F6E652045646941
:1039B00074696E67204D6573680046696E652054B2
:1039C000756E696E67204D6573680028582C5929FB
:1039D000206F757473696465207072696E746162BA
:1039E0006C65207261646975732E0A004F66667398
:1039F0006574206F7574206F6620626F756E6473D6
:103A00002E20283020746F2031306D6D290A0A0075
:103A1000E338DE38D938D4385D0A00626564207036
:103A20006C616E65206E6F726D616C203D205B0075
:103A3000436F756C64206E6F7420636F6D706C657E
:103A40007465204C53462100436F72726563746540
:103A5000645F5A3D003F4572726F722070726F62F0
:103A6000696E6720706F696E742E202041626F72DC
:103A700074696E67206F7065726174696F6E2E0A6B
:103A800000436F727265637465645F5A3D00436FF3
:103A9000727265637465645F5A3D00436F7272654C
:103AA000637465645F5A3D00627573793A20706192
:103AB0007573656420666F7220696E7075740A0094
:103AC000627573793A2070617573656420666F72F0
:103AD00020757365720A00627573793A2070726F8F
:103AE00063657373696E670A004B494C4C45442EFD
:103AF00020004B494C4C20636175736564206279EA
:103B0000204B494C4C20627574746F6E2F70696E37
:103B10000A004B494C4C45442E20004B494C4C204C
:103B200063617573656420627920746F6F206D75B1
:103B3000636820696E6163746976652074696D6578
:103B4000202D2063757272656E7420636F6D6D61D8
:103B50006E643A20004D36303000506C65617365FC
:103B6000207265736574005052494E544552204886
:103B7000414C544544005072696E7465722068610E
:103B80006C7465642E206B696C6C28292063616CF1
:103B90006C6564210A00656E7175657565696E678F
:103BA00020220000000000008018440000000000F7
:103BB000004842000048420000A0400000000057BA
:103BC00061726E696E673A20486F6D696E67204258
:103BD000756D702044697669736F72203C20310ADC
:103BE000000202040000A0400000A04000000040CD
:103BF000000096440080184400001644FF01FF5066
:103C000072656865617420504C41203200507265C5
:103C10006865617420504C4120416C6C00507265A5
:103C20006865617420504C412031005072657061AC
:103C3000726500507265686561742041425320329C
:103C400000507265686561742041425320416C6C7C
:103C50000050726568656174204142532031005004
:103C600072657061726500496E666F20736372657C
:103C7000656E00504C412C204E6F7A7A6C653A315B
:103C80002E30004732380A47323620432053312E37
:103C9000302048323330204C302E3500504C412CEF
:103CA000204E6F7A7A6C653A302E38004732380AE7
:103CB00047323620432053302E38204832333020CC
:103CC0004C302E3400504C412C204E6F7A7A6C656B
:103CD0003A302E36004732380A47323620432053D6
:103CE000302E362048323330204C302E3300504CAA
:103CF000412C204E6F7A7A6C653A302E3400473270
:103D0000380A47323620432053302E34204832318F
:103D100035204C302E320052657475726E004D3174
:103D20003137204D6573682025692073617665649D
:103D300000473239205325690A4D353030004D3166
:103D40003137204D657368202569206C6F6164658B
:103D50006400473239204C25690053617665204262
:103D60006564204D657368004C6F61642042656432
:103D7000204D657368004D656D6F727920536C6FCF
:103D800074004D656D6F727920536C6F74004D65D2
:103D90006D6F727920536C6F74004E6F2073746F67
:103DA0007261676500556E69666965642042656485
:103DB000204C6576656C696E670047323920503457
:103DC00020582573205925732052256900202D2D58
:103DD0002D2D2D0000000000398E8742398E0743BB
:103DE00056554B43398E8743C771A9435655CB432C
:103DF000E438ED43398E074400801844C7712944E4
:103E00008E633A4456554B441D475C44E4386D4438
:103E1000AB2A7E4400000000B76DAB42B76D2B4368
:103E200049928043B76DAB432549D643499200443C
:103E300000001644B76D2B446EDB404425495644C0
:103E4000DCB66B444992804425498B44000096447B
:103E5000DCB6A04434205361766520426564204D71
:103E60006573680033204163746976617465205519
:103E7000424C0047323920410A204D333030205324
:103E80003434302050323030003220536D6172743F
:103E90002046696C6C2D696E004732392050332002
:103EA00054300A204D3330302053343430205032D7
:103EB00030300031204275696C64204D65736800B4
:103EC0004732380A47323920503100556E696669E9
:103ED000656420426564204C6576656C696E670098
:103EE000446561637469766174652055424C00478E
:103EF000323920440046616465204865696768740A
:103F000000466164652048656967687400466164BD
:103F100065204865696768740053656E64206D6547
:103F2000736820746F205043004732392054005387
:103F3000656E6420696E666F20746F205043004781
:103F4000323920570056616C6964617465204D6593
:103F50007368004D6573682053746F726167650004
:103F6000537465702D42792D537465702055424C01
:103F70000052657475726E005374616E6461726490
:103F800020446576696174696F6E3A20004D656101
:103F90006E204D657368204865696768743A200033
:103FA00023206F662073616D706C65733A20000A80
:103FB0004D657368206F6E6C7920706172746961F1
:103FC0006C6C7920706F70756C617465642E0A0A70
:103FD0000020616E642074616B652061206D6561F5
:103FE000737572656D656E742E0A006D6D20746850
:103FF00069636B2E0A00427573696E6573732043A3
:10400000617264206973200052656D6F76652026A9
:10401000206D656173757265206265640052656D1F
:104020006F7665207368696D00506C6163652073FD
:1040300068696D2026206D65617375726500506C2E
:10404000616365207368696D20756E646572206EAA
:104050006F7A7A6C65004D65736820506F696E7475
:10406000204D656173757265642061743A20000AA1
:104070004D657368206F6E6C792070617274696130
:104080006C6C7920706F70756C617465642E0A00B9
:104090004D65617375726500506C6163652073686E
:1040A000696D2026206D656173757265004D6F76B0
:1040B000696E6720746F206E65787400496E766152
:1040C0006C6964206D617020747970652E0A0A0035
:1040D0003F284629616465206865696768742066C1
:1040E0006F7220426564204C6576656C20436F7268
:1040F00072656374696F6E206E6F7420706C617589
:104100007369626C652E0A0A003F43616E27742052
:10411000616374697661746520616E6420646561B1
:1041200063746976617465206174207468652073B6
:10413000616D652074696D652E0A0A00426F7468AE
:10414000205820262059206C6F636174696F6E734C
:10415000206D75737420626520737065636966698C
:1041600065642E0A0A003F496E76616C69642067B7
:104170007269642073697A6520284A292073706502
:104180006369666965642028322D39292E0A0A0080
:104190003F285029686173652076616C75652069D8
:1041A0006E76616C69642028302D36292E0A0A004B
:1041B0003F2856296572626F7365206C6576656C61
:1041C00020697320696D706C61757369626C65201C
:1041D00028302D34292E0A0A003F2852296570659F
:1041E000746974696F6E20636F756E7420696E7682
:1041F000616C69642028312B292E0A0A00446F69FA
:104200006E6720473239002073616E6974792063CC
:104210006865636B73207061737365642E0A002098
:104220002073746174653A004B696C6C2070696E20
:10423000206F6E203A00202000592D4178697320AC
:104240004D65736820506F696E74732061743A20F5
:1042500000202000582D41786973204D6573682037
:10426000506F696E74732061743A20004D45534855
:104270005F595F444953542020004D4553485F58CF
:104280005F44495354202000475249445F4D4158F0
:104290005F504F494E54535F5920200047524944C4
:1042A0005F4D41585F504F494E54535F5820200096
:1042B0004D4553485F4D41585F59202036313020DD
:1042C0002D202830293D004D4553485F4D41585F12
:1042D00058202031323030202D202830293D004D0B
:1042E0004553485F4D494E5F592020303D004D45B4
:1042F00053485F4D494E5F582020303D007A707220
:104300006F62655F7A6F66667365743A2000706CE1
:10431000616E6E65722E7A5F666164655F6865695D
:10432000676874203A200055424C206F626A6563CA
:104330007420636F756E743A2000204C6F61646561
:10434000642E004D65736820004E6F204D657368C4
:10435000204C6F616465642E003A20004545505240
:104360004F4D2044756D703A0A004D657368207397
:104370006176656420696E20736C6F742000207311
:104380006C6F743D00206D65736865735F656E6466
:104390003D004532454E443D004D657368206C6FCD
:1043A000616465642066726F6D20736C6F742000A9
:1043B00048617264636F6465642044656661756C0E
:1043C000742053657474696E6773204C6F61646503
:1043D000640A00B0040000B0040000640000001093
:1043E00027000000009643000096430000A0400014
:1043F00000C841000048430000C8420000FA4400E1
:1044000040D14320204D36303320003A0A00202886
:104410006D6D29002055005431204C00205500546A
:1044200030204C0046696C616D656E74206C6F6164
:10443000642F756E6C6F6164206C656E6774687351
:104440003A0A0020204D383531205A005A2D50723A
:104450006F6265204F6666736574002044002049D2
:104460000020204D333031205000204400204900EE
:1044700020500020204D3330312045005049442049
:1044800073657474696E67733A0A002046002042AF
:104490000020480020204D3134352053004D6174F8
:1044A000657269616C2068656174757020706172F5
:1044B000616D65746572733A0A00206D6573686595
:1044C000732E0A0A00454550524F4D2063616E20FD
:1044D000686F6C6420000A416374697665204D65DD
:1044E000736820536C6F743A2000205A0020204DCE
:1044F0003432302053003A0A00205900205800205E
:10450000204D323138205400486F74656E64206F3E
:104510006666736574733A0A00205A0020590020B9
:10452000204D323036205800486F6D65206F66662A
:104530007365743A0A00204500205A002059002073
:10454000580020540020530020204D323035205197
:104550000020453C6D61785F655F6A65726B3E0067
:1045600020583C6D61785F785F6A65726B3E2059B8
:104570003C6D61785F795F6A65726B3E205A3C6D75
:1045800061785F7A5F6A65726B3E00416476616E46
:104590006365643A20513C6D696E5F7365676D6554
:1045A0006E745F74696D655F75733E20533C6D6911
:1045B0006E5F66656564726174653E20543C6D692A
:1045C0006E5F74726176656C5F6665656472617456
:1045D000653E0020540020520020204D323034200F
:1045E0005000416363656C65726174696F6E202869
:1045F000756E6974732F7332293A20503C7072695A
:104600006E745F616363656C3E20523C72657472C8
:104610006163745F616363656C3E20543C747261D6
:1046200076656C5F616363656C3E0A00204500201F
:104630005A0020590020204D3230312058004D6161
:1046400078696D756D20416363656C65726174692D
:104650006F6E2028756E6974732F7332293A0A00C1
:10466000204500205A0020590020204D32303320B0
:1046700058004D6178696D756D206665656472617D
:104680007465732028756E6974732F73293A0A0054
:10469000204500205A0020590020204D3932205852
:1046A0000053746570732070657220756E69743A7A
:1046B0000A0020204D3230302044300A0020204DA6
:1046C00032303020543120440020204D3230302010
:1046D00044002044697361626C65640A0046696C39
:1046E000616D656E742073657474696E67733A00EA
:1046F00020204D3134392043203B20556E6974739E
:1047000020696E2043656C736975730A0020204729
:104710003231202020203B00545249474745524522
:1047200044006F70656E003A200066696C616D65CB
:104730006E74007A5F6D696E00795F6D61780079E3
:104740005F6D696E00785F6D696E005265706F72A3
:1047500074696E6720656E6473746F702073746122
:104760007475730A00332E20536176652053657487
:1047700074696E6773004D3231312053310A20471E
:10478000323800322E2041646A757374204865699E
:10479000676874285A2900312E205374617274207E
:1047A00050726F6365737300473238205820590A7E
:1047B00020473120583330302059353020463530AD
:1047C00030300A204D3231312053300A2047323800
:1047D000205A0052657475726E00342E43616C6904
:1047E000627261746520526967687400332E436198
:1047F0006C696272617465204C65667400322E418A
:10480000646A75737420686569676874285A29003A
:10481000312E53746172742050726F63657373002C
:10482000473238205820590A204731205836303036
:1048300020593330302046353030300052657475A1
:10484000726E00322E476F20746F2046726F6E7446
:10485000204C2E5363726577004731205830205921
:1048600033302046353030300A204D383400312E78
:10487000476F20746F2052656172204C2E53637213
:104880006577004731205830205936303020463582
:104890003030300A204D38340052657475726E0025
:1048A000322E476F20746F2046726F6E7420522E26
:1048B00053637265770047312058313230302059C8
:1048C00033302046353030300A204D383400312E18
:1048D000476F20746F205265617220522E536372AD
:1048E000657700473120583132303020593630302A
:1048F0002046353030300A204D383400526574750A
:10490000726E00362E53617665205A204F666673AC
:10491000657400352E5072696E742054657374206E
:104920004C696E65004739322045300A20473120F6
:10493000583230302045333520463530300A204754
:1049400039322045300A20473120452D312046316B
:104950003030300A204732382058205900352E4850
:10496000656174696E672C506C6561736520776151
:104970006974004D33303000342E566572696679A3
:104980002048656967687400473238205A0A204712
:1049900031205830205932302046353030300A200E
:1049A0004731205A302E3200332E486F6D65205823
:1049B00020262059004732382058205900322E53E3
:1049C0006574205A204F666673657400322E5365F5
:1049D00074205A204F666673657400322E536574D6
:1049E000205A204F666673657400312E536574201B
:1049F00054656D6572617475726500312E5365740E
:104A00002054656D6572617475726500312E536551
:104A1000742054656D6572617475726500526574B9
:104A200075726E0050726568656174204142532052
:104A3000636F6E66005072656865617420504C410A
:104A400020636F6E66005049442D44005049442D48
:104A500044005049442D49005049442D49005049D3
:104A6000442D50005049442D50005049442D5000D1
:104A700020082046616374002008204661637400AA
:104A800020082046616374002008204D61780020D2
:104A900008204D6178002008204D61780020082012
:104AA0004D696E002008204D696E002008204D6978
:104AB0006E004F6666004F6E20004175746F74651E
:104AC0006D700046616E2073706565640046616EAE
:104AD0002073706565640046616E2073706565645F
:104AE000004E6F7A7A6C652032004E6F7A7A6C6570
:104AF0002032004E6F7A7A6C652032004E6F7A7ADF
:104B00006C652031004E6F7A7A6C652031004E6FF3
:104B10007A7A6C65203100436F6E74726F6C00534B
:104B2000746F72652073657474696E6773004E6F7D
:104B30007A7A6C65004E6F7A7A6C65004E6F7A7A7D
:104B40006C650046616E2073706565640046616E39
:104B50002073706565640046616E207370656564DE
:104B60000054656D70657261747572650057726985
:104B700074696E6720746F2066696C653A20006FF7
:104B800070656E206661696C65642C2046696C6591
:104B90003A20006F70656E206661696C65642C2038
:104BA00046696C653A200046696C652073656C65E2
:104BB000637465640A002053697A653A2000466987
:104BC0006C65206F70656E65643A20002066696CC4
:104BD000653A2000646F696E6700667265736800ED
:104BE0004E6F772000454E4420535542524F555446
:104BF000494E450A002220706F73002220706172B6
:104C0000656E743A2200535542524F5554494E45F1
:104C10002043414C4C207461726765743A22004B0A
:104C2000494C4C45442E2000747279696E6720749B
:104C30006F2063616C6C207375622D67636F6465B0
:104C40002066696C6573207769746820746F6F20C3
:104C50006D616E79206C6576656C732E204D4158C0
:104C6000206C6576656C2069733A004572726F72CC
:104C70003A006F70656E206661696C65642C204631
:104C8000696C653A200043616E6E6F74206F7065C9
:104C90006E2073756264697220006563686F3A0004
:104CA0007C3C3E5E2B3D3F2F5B5D3B2C2A225C0013
:104CB0004572726F722077726974696E6720746FC3
:104CC00020454550524F4D210A001000C9021001E5
:104CD0002C014001220170011801B0010E01F00108
:104CE00004015002FA00B002F0003003E600D003E5
:104CF000DC009004D2007005C800A006BE000008C9
:104D0000B400B009AA00D00BA000600E960060119C
:104D10008C000015820020197800C01D6E00A022B2
:104D20006400B0275A00902C500000314600E03457
:104D30003C0010383200903A2800603C1E00A03D34
:104D40001400803E0A00203F000000000000300EEA
:104D50000100C00E0A00500F1400D00F1E0060109A
:104D60002800E010320070113C00F0114600701273
:104D7000500000135A008013640000146E00901459
:104D800078001015820090158C0010169600901671
:104D9000A0001017AA009017B4001018BE009018B9
:104DA000C8001019D2009019DC00101AE600801A11
:104DB000F000001BFA00801B0401F01B0E01701CA8
:104DC0001801F01C2201601D2C01E01D3601501E4F
:104DD0004001D01E4A01401F5401B01F5E01302027
:104DE0006801A020720110217C019021860100221F
:104DF00090016026F401902A5802802EBC025032A5
:104E00002003E03584035039E803803C4C04202F14
:104E10000020400020403A00556E696669656420B4
:104E2000426564204C6576656C696E6700205A00A7
:104E3000204A0020204D34323120490020204732C2
:104E40003920493939390A006163746976652E0A57
:104E500000696E002053797374656D2076312E30B1
:104E60003120002020207C0A004E414E0020202EC0
:104E700020202000207C004C43443A0A0043535633
:104E80003A0A0020666F7220003A0A0A000A426558
:104E90006420546F706F677261706879205265701A
:104EA0006F7274003F4D65736820746F6F20626984
:104EB0006720666F7220454550524F4D2E0A0044C0
:104EC0006F6E652E0A003F557365203020746F2089
:104ED000003F496E76616C69642073746F7261671C
:104EE0006520736C6F742E0A003F454550524F4D3C
:104EF0002073746F72616765206E6F7420617661D4
:104F0000696C61626C652E0A00446F6E652E0A0042
:104F10003F557365203020746F20003F496E7661E5
:104F20006C69642073746F7261676520736C6F7451
:104F30002E0A003F454550524F4D2073746F7261E9
:104F40006765206E6F7420617661696C61626C6563
:104F50002E0A004732392050322066696E69736824
:104F600065642E0A005859206F7574736964652052
:104F70007072696E7461626C6520726164697573C8
:104F80002E0A003F4572726F7220696E204275735F
:104F9000696E6573732043617264206D656173751A
:104FA00072656D656E742E0A004D616E75616C6C74
:104FB000792070726F62696E6720756E72656163C9
:104FC0006861626C65206D657368206C6F636174E5
:104FD000696F6E732E0A00292E0A0A0050726F62E2
:104FE000696E67204D65736820506F696E74732019
:104FF000436C6F7365737420746F2028004D657364
:105000006820696E76616C6964617465642E2050F5
:10501000726F62696E67206D6573682E0A004D6558
:105020007368207A65726F65642E0A004465666154
:10503000756C742073746F7261676520736C6F7424
:1050400020302073656C65637465642E0A004C6FB4
:105050006164696E6720746573745F7061747465F0
:10506000726E2076616C7565732E0A0A00496E7641
:10507000616C696420746573745F706174746572C7
:105080006E2076616C75652E20282D3120746F207E
:1050900032290A0A004C6F636174696F6E7320696C
:1050A0006E76616C6964617465642E0A0A00456EEF
:1050B00074697265204D65736820696E76616C69EC
:1050C00064617465642E0A0A004573746570732FF9
:1050D0006D6D004573746570732F6D6D005A737438
:1050E0006570732F6D6D005A73746570732F6D6DDD
:1050F000005973746570732F6D6D0059737465700A
:10510000732F6D6D005873746570732F6D6D00583B
:1051100073746570732F6D6D004D6F74696F6E00E1
:1051200053746570732F6D6D004A65726B00416337
:1051300063656C65726174696F6E0056656C6F6350
:105140006974790050726F6265205A204F666673E9
:10515000657400436F6E74726F6C004C6F616420F5
:105160006D6D2032004C6F6164206D6D2032004CFB
:105170006F6164206D6D2032004C6F6164206D6D35
:105180002031004C6F6164206D6D2031004C6F61E7
:1051900064206D6D2031004C6F6164206D6D004C9A
:1051A0006F6164206D6D004C6F6164206D6D005502
:1051B0006E6C6F6164206D6D203200556E6C6F6196
:1051C00064206D6D203200556E6C6F6164206D6DD2
:1051D000203200556E6C6F6164206D6D203100557A
:1051E0006E6C6F6164206D6D203100556E6C6F6167
:1051F00064206D6D203100556E6C6F6164206D6DA3
:1052000000556E6C6F6164206D6D00556E6C6F6142
:1052100064206D6D0046696C2E204469612E203239
:105220000046696C2E204469612E20320046696C6C
:105230002E204469612E20310046696C2E2044697D
:10524000612E20310046696C2E204469612E004693
:10525000696C2E204469612E004F6666004F6E20F7
:10526000004520696E206D6D33004520696E206D0C
:105270006D3300436F6E74726F6C0043616E6E6FBE
:105280007420656E746572207375626469723A2069
:1052900000022E2E004D61696E004D3730322054D1
:1052A0002564004D36303020423020542564004DB6
:1052B000373032203B2564004D373031205425648F
:1052C000004368616E67652066696C616D656E7428
:1052D00000556E6C6F61642066696C616D656E74FB
:1052E000004C6F61642066696C616D656E7400507E
:1052F000726568656174204142530050726568654B
:10530000617420504C410052657475726E00000645
:105310000900FE0701920321207FFF07FF07FF001E
:1053200000000600000107070602008080808080E0
:105330000080030202060105A0A005070706000081
:105340005050F850F850500507070600002078A08C
:105350007028F020050707060000C0C810204098FC
:10536000180507070600006090A040A89068020397
:1053700003060104C04080030707060100204080A7
:105380008080402003070706010080402020204045
:105390008005050506000120A870A8200505050662
:1053A00000012020F820200203030602FFC04080F5
:1053B000050101060003F8020202060200C0C00552
:1053C00005050600010810204080050707060000BB
:1053D0007088888888887003070706010040C040ED
:1053E000404040E005070706000070880870808094
:1053F000F8050707060000F81020100808F0050758
:105400000706000010305090F8101005070706003E
:1054100000F880F008088870050707060000708013
:1054200080F0888870050707060000F80810202023
:10543000202005070706000070888870888870059E
:1054400007070600007088887808087002050506BE
:105450000200C0C000C0C00206060602FFC0C000B5
:10546000C040800407070600001020408040201044
:10547000050303060002F800F80407070601008090
:1054800040201020408005070706000070880810A3
:1054900020002005070706000070880868A8A8708B
:1054A000050707060000708888F8888888050707C0
:1054B000060000F08888F08888F0050707060000DD
:1054C00070888080808870050707060000F0888853
:1054D000888888F0050707060000F88080F0808043
:1054E000F8050707060000F88080F0808080050737
:1054F00007060000708880B88888700507070600D6
:1055000000888888F888888801070706020080805C
:10551000808080808005070706000038101010107A
:1055200090600507070600008890A0C0A09088053D
:105530000707060000808080808080F80507070646
:10554000000088D8A8888888880507070600008892
:1055500088C8A8988888050707060000708888888A
:10556000888870050707060000F08888F080808032
:1055700005070706000070888888A8906805070757
:10558000060000F08888F0A0908805070706000054
:10559000788080700808F0050707060000F82020D2
:1055A0002020202005070706000088888888888832
:1055B000700507070600008888888888502005073E
:1055C000070600008888888888A850050707060015
:1055D00000888850205088880507070600008888C2
:1055E0008850202020050707060000F808102040FA
:1055F00080F8030707060100E08080808080E005D6
:105600000505060001804020100803070706010079
:10561000E02020202020E00503030600042050881D
:10562000050101060000F80202020602058040059D
:105630000505060000700878887805070706000051
:105640008080B0C88888F00505050600007080805D
:10565000887005070706000008086898888878059C
:1056600005050600007088F8807005070706000031
:105670003048E0404040400506060600FF7088883C
:105680007808700507070600008080B0C888888801
:1056900001070706020080008080808080030808E0
:1056A0000601FF200020202020A04004070706005C
:1056B00000808090A0C0A090030707060100C040B2
:1056C00040404040E0050505060000D0A8A8A8A875
:1056D000050505060000B0C8888888050505060090
:1056E0000070888888700506060600FFF08888F03C
:1056F00080800506060600FF78888878080805057A
:1057000005060000B0C88080800505050600007011
:10571000807008F00407070600004040E040404069
:105720003005050506000088888898680505050687
:10573000000088888850200505050600008888A894
:10574000A85005050506000088502050880506066B
:105750000600FF888888780870050505060000F8AF
:10576000102040F803070706010020404080404019
:105770002001070706020080808080808080030768
:1057800007060100804040204040800502020600DC
:10579000026890000000060000000021002400279D
:1057A000002A002D00300033000101000004010731
:1057B000010A01496E73756666696369656E7420D6
:1057C000646174610A00646F6E650A0045787472E2
:1057D00061706F6C6174696E67206D6573682E2EE1
:1057E0002E00454550524F4D206461746173697AB3
:1057F00065206572726F722E0A00290A0020627994
:105800007465733B20637263200053657474696E22
:1058100067732053746F72656420280055424C20D2
:1058200053797374656D20726573657428290A0055
:10583000206C6F616465642066726F6D2073746F95
:10584000726167652E0A004D65736820002E0A009C
:105850003F43616E277420656E61626C6520002095
:10586000696E697469616C697A65642E0A0A002937
:105870000A002062797465733B2063726320002004
:1058800073746F7265642073657474696E677320D6
:1058900072657472696576656420280020286361EA
:1058A0006C63756C6174656429210A0020213D20B8
:1058B00000454550524F4D20435243206D69736D52
:1058C00061746368202D202873746F7265642920C9
:1058D000002053697A653A2000496E6465783A2061
:1058E00000204D61726C696E3D563535290A0028DD
:1058F000454550524F4D3D00454550524F4D207645
:10590000657273696F6E206D69736D617463682071
:1059100000486F74656E6420746F6F20636F6C64F1
:105920000A0050726F7465637465642050696E0A72
:105930000020573A0045256920436F6F6C696E67F8
:105940002E2E2E004525692048656174696E672EEC
:105950002E2E00205A3A0020593A0020436F756ECF
:105960007420583A0020453A00205A3A0020593A0B
:1059700000583A003A004361703A00205A0020591A
:1059800000580020204D61783A2000205A0020590C
:1059900000580020204D696E3A20004F6E20004FC5
:1059A000666600536F667420656E6473746F7073FF
:1059B0003A200023646566696E652044454641557A
:1059C0004C545F4B64200023646566696E65204417
:1059D000454641554C545F4B692000236465666918
:1059E0006E652044454641554C545F4B7020005035
:1059F0004944204175746F74756E652066696E69DF
:105A000073686564212050757420746865206C612A
:105A10007374204B702C204B6920616E64204B64A2
:105A200020636F6E7374616E74732066726F6D2085
:105A300062656C6F7720696E746F20436F6E666964
:105A40006775726174696F6E2E680A005049442050
:105A50004175746F74756E65206661696C6564214B
:105A60002074696D656F75740A004530205448458F
:105A7000524D414C2052554E41574159004531201D
:105A8000544845524D414C2052554E4157415900C2
:105A9000546865726D616C2052756E617761790032
:105AA00045302048656174696E67206661696C6580
:105AB000640045312048656174696E6720666169DC
:105AC0006C65640048656174696E67206661696C25
:105AD000656400504944204175746F74756E65208B
